:100000000C9498010C94B5010C94B5010C94B501B5
:100010000C94B5010C94B5010C94B5010C94B50188
:100020000C94B5010C94B5010C94CA0B0C940C0BF8
:100030000C94AD130C94B5010C94B5010C94B5015E
:100040000C94B5010C94B5010C94B5010C94B50158
:100050000C94B5010C946C130C94B5010C94B5017F
:100060000C94B5010C94B5010C94B5010C94B50138
:100070000C94B5010C94B5010C94B5010C94B50128
:100080000C94B5010C94B5010C94B5010C94B50118
:100090000C94B5010C94B5010C94B5010C94B50108
:1000A0000C94B5010C94B5010C94B50198029D0215
:1000B000A7029B02A002A502A302080408043B04B5
:1000C0003B04A604C305C305C305C404380549059C
:1000D000490519071C071F072207250728072B07B3
:1000E00024094B09F40A4B09F40A9709BA09F40ADE
:1000F000AF0ABF0A61166E1616158A167A1688168A
:1001000088168616881605010980A1018503190144
:100110002AB700150126B700950175108100C005AA
:100120000C0901A101850419012AA002150126A0CC
:1001300002950175108100C005010906A10185061F
:10014000050719E029E715002501950875018102C9
:100150000507190029EF1500250195F075018102A9
:100160000508190129059505750191029501750389
:100170009101C00660FF0961A1010962150026FF17
:10018000009520750881020963150026FF0095205F
:1001900075089102C005010906A101050719E029AA
:1001A000E715002501950875018102950175088103
:1001B000010507190029FF150026FF00950675089F
:1001C0008100050819012905950575019102950120
:1001D00075039101C009025B00030100A0FA090444
:1001E000000001030101000921110100012240006A
:1001F0000705810308000109040100020300000053
:1002000009211101000122220007058203200001BB
:100210000705030320000109040200010300000098
:10022000092111010001226D00070584032000014E
:100230001201000200000008973274490100010217
:10024000000116034500720067006F0044006F0054
:100250007800200045005A00000028035A0053008F
:100260004100200054006500630068006E006F00CC
:100270006C006F006700790020004C006100620094
:1002800073000000040309040100010001000100E3
:10029000010000000100140004001D000100010025
:1002A00001001A0015001B0001002A0001000900CE
:1002B0001600060001002C000100130017000500C5
:1002C0004F00010001000A000700050000000100C6
:1002D0000100010000000100000001000100010018
:1002E000000001000000010001000D000B000E00E5
:1002F0000000010001000F00110010005200010079
:1003000001001800080037000100280001001C004F
:100310000C00360001002B00010001001200380023
:1003200001000100010001000100010001000000C6
:1003300011241FBECFEFDAE0DEBFCDBF11E0A0E099
:10034000B1E0E2ECF6E302C005900D92A236B107EF
:10035000D9F722E0A2E6B1E001C01D92A338B207AE
:10036000E1F70E9437140C945F1B0C94000010926C
:1003700066010E94D7172FEF84E39CE02150804054
:100380009040E1F700C000009AE088E10FB6F894D1
:10039000A895809360000FBE90936000FFCFA7E107
:1003A000B0E0E5EDF1E00C94BB194B8B5C8B6D8BF1
:1003B0007E8B8F8B61111092100286E09E01235F6D
:1003C0003F4FD901E82F1D92EA95E9F795E0FE012C
:1003D0007396D90101900D929A95E1F79C894E8907
:1003E0005F897B897D879E876F87598B488BF90151
:1003F000DE01179601900D928A95E1F7CE010796DE
:100400000E94901081113EC086E0FE013796DE0109
:10041000119601900D928A95E1F7FF81E8856A8532
:100420007B856115710531F0EF3F31F481E0FF3FCD
:1004300019F403C081E001C080E080FD23C0209159
:10044000BD0130E0C9010196877099274091EE0106
:1004500050E08417950779F1F983EA837D836C83F3
:1004600096E0929FD001939FB00D1124A254BE4FED
:10047000FE01319601900D929A95E1F78093BD01AE
:100480000E941D1016E08091EE019091BD01891728
:1004900009F1189FC001112482549E4F0E949010B0
:1004A0008823C1F08091EE0190E001968770992732
:1004B0008093EE01E8CF109266010E94D717109248
:1004C000BD011092EE01E7EBF1E086E0DF011D9245
:1004D0008A95E9F76796E3E00C94D719982F9295DF
:1004E0009F7019F0892F24E001C020E0982F969585
:1004F000969511F02E5F892F982F969509F02F5F12
:10050000822F0895CF93C82F0E946E0256985E984E
:1005100025982D9826982E9827982F9890E0FC01E2
:100520003197E730F105A8F4EA5AFF4F0C942B1AE3
:10053000259A2D9A0EC0259A2D9A269A2E9A09C090
:10054000259A2D9A04C0259A2D9A269A2E9A279A92
:100550002F9A8C2FCF910895A5E2B0E0E2EBF2E064
:100560000C94B319FC018081918123813481232B68
:1005700031F09F3F31F491E08F3F19F403C091E0D7
:1005800001C090E090FD2CC37F0185E0DE019196D3
:1005900001900D928A95E1F7F701228189A19AA134
:1005A000222349F00E94B316182F682F89A19AA11F
:1005B0000E94231703C00E94EF16182F69A17AA189
:1005C000812F0E946C0D8C0180919401882399F0F9
:1005D000F7018281811102C087E001C086E0898332
:1005E000F70180818A8381818B838EEF8C83CE019A
:1005F00001960E94FE0C033BFDE51F07D1F5F701B4
:1006000082818823B1F190911B0281E0890F87706C
:10061000987F853020F4892B80931B0202C0909331
:100620001B0280911B028770FFEF8F9FC001112476
:1006300095958795959587959927909389008093AF
:10064000880090938B0080938A0090938D00809314
:100650008C0040911B0250911C0260911D02709110
:100660001E028FE090E00E94091A80912D020E94E4
:100670008202F7018281882309F47DC00C35FDE5F3
:100680001F0709F465C058F401158CE5180799F0A7
:100690000F3D1C4509F06FC00E940C0F4FC00E3576
:1006A000EDE51E0709F44CC008F454C0093A1D4595
:1006B00009F444C060C0109266010E94D7178FEF02
:1006C00094E3ECE081509040E040E1F700C000008E
:1006D000F89481E08093E00080E28093D80010924B
:1006E000C9008FE19EE40197F1F700C000001DBA38
:1006F000109268001CBC10BE1FBA10927A001092B3
:100700006E0010926F0010927100109272001092A1
:10071000C9001092BC0014B817B81AB81DB810BAA6
:100720001092BC0015B818B81BB81EB811BA0C94BA
:10073000003F8091EF01877089F452C20E94B70197
:1007400080915A0282FB882780F991E0892703C0B3
:1007500081E001C080E00E9401100DC0F70182819C
:10076000882309F43DC280915A0282FF39C282E097
:100770000E94E40F35C2F701828100811181882334
:1007800049F0C8010E94B316D82E682FC8010E94F4
:10079000231704C0C8010E94EF16D82EB8018D2D72
:1007A0000E946C0D0E94850DB82E192F982EF7010E
:1007B0000281A580A2949FE0A9228091EF01877019
:1007C000B9F00023A9F0812F807F803421F080E2EE
:1007D0008B0D883068F080915A0282FF09C082E058
:1007E0000E94E40F8091EF018770DD24D394811182
:1007F000D12CC12EC2948FE0C8228C2D90E08C3079
:10080000910508F0C0C1FC01E35AFF4F0C942B1A6C
:10081000812F807F1F70882311F01295107F002395
:10082000B9F0112309F49DC180E28B0D883010F0DE
:10083000911006C080916601182B1093660105C0C7
:1008400080911002182B109310020E948F0F89C103
:100850008B2D0E94FC17112309F495C180E28B0DAA
:10086000883080F1992071F1109580911002182341
:10087000109310022AC0812F807F1F70803211F0E8
:100880001295107F8B2D992021F0F1E09F16D9F160
:1008900047C080915A0282FD1BC0002369F01123DA
:1008A00039F080916601182B109366010E948F0F1A
:1008B00080E00E94281867C180E00E94FC17112385
:1008C00009F461C1812F0E94880F0E948F0F5BC1C4
:1008D000002381F080911102AA2051F021E0A212A0
:1008E00007C0182B181709F44EC1109311024BC101
:1008F000812B10C0AA2021F081E0A81609F443C181
:100900000E94820F1FC0002341F091E09A1508F465
:100910003AC1812F0E94F21736C1A11034C112C012
:10092000002319F0AA20A9F31CC1AA2059F0893389
:1009300009F026C1EFEFF7EE23E0E150F040204050
:10094000E1F71CC1812F0E94EB171DC1812F8695F5
:100950008695837019F0813061F015C1002321F074
:100960008B2D912F937002C080E090E00E941414B0
:1009700010C1002321F08B2D912F937002C080E0D5
:1009800090E00E94FE1305C1812F8370A9F501112B
:10099000FEC04B2D429546954770440F440F8B2D5A
:1009A0008F7090E09C01042E01C0220F0A94EAF798
:1009B000B4FE08C08FE090E001C0880F4A95EAF7C6
:1009C000809501C080E0169516951370123069F07D
:1009D00088F490911202113019F0822B892302C001
:1009E000922B892B0E949B17D2C0822B90911202CE
:1009F0008927F8CF822BF6CF002319F0812F817041
:100A000001C08695882309F4C2C04B2D42954695B6
:100A10004770440F440F8B2D8F7090E09C01042E83
:100A200001C0220F0A94EAF7B4FE08C08FE090E0FC
:100A300001C0880F4A95EAF7809501C080E01695BD
:100A400016951370123059F078F490912D021130F0
:100A500019F0822B892309C0922B892B06C0822B87
:100A600090912D02892701C0822B0E9458178FC0B8
:100A70001F70002339F0812F0E948F178B2D0E9449
:100A8000F21785C08B2D0E94EB17812F0E948217D1
:100A90007EC08B2D92EF991669F1991538F0E0EF31
:100AA0009E1659F0F1EF9F1601F157C023EF9216F1
:100AB00041F194EF9916A9F050C0002369F0A110FC
:100AC00062C01F7181E090E001C0880F1A95EAF7BB
:100AD00090912D0289271FC0E1E0EA1508F453C068
:100AE000F0CF80915A0282FD19C0002329F0812F96
:100AF0008F7126C00023D9F3812F8F710E94821736
:100B000042C0002339F01F7181E001C0880F1A959F
:100B1000EAF701C080E00E94581735C0002399F021
:100B20001F71812F0E948F1780915A0282FF07C088
:100B3000F8E01F9FC001112483608093EF01812F93
:100B40000E948F1720C081E00E94E40F21E02A1547
:100B5000D0F482E00E94E40F16C0002321F0AA2006
:100B600031F28B2DA6CEAA2039F2893349F48FEFCA
:100B700097EEE3E081509040E040E1F700C00000D4
:100B80008B2D0E94FC1788EF8C0D843010F40E948E
:100B90002A14DD20A9F08091EF0180FD11C0F7013A
:100BA00012828595859585950E948F17C7010E94B1
:100BB000AC028091EF018595859585950E948217FD
:100BC00085E0F701DE01119601900D928A95E1F71B
:100BD00009811A81C8010E94EF16B8010E946C0DAC
:100BE000A596EBE00C94CF1980E290E0909314016D
:100BF000809313018091640181110EC00E94C81876
:100C000081E0809364012FEF83ED90E321508040D9
:100C10009040E1F700C0000060E570E080E40E94D1
:100C2000CE189093140180931301892B09F04EC0C4
:100C300060E570E080E00E94411990931401809378
:100C40001301892B09F042C060E570E080E00E944A
:100C500041199093140180931301892BB9F560E534
:100C600070E08FE30E944119909314018093130167
:100C7000892B61F50E94941960E570E080E40E9480
:100C8000CE189093140180931301892BF9F460E539
:100C900070E08CE00E94411990931401809313013D
:100CA000892BA1F460E570E080E00E9441199093E7
:100CB000140180931301892B49F460E570E08FE300
:100CC0000E94411990931401809313010E9494197A
:100CD000809113010895CF93DF9356985E982598DD
:100CE0002D9826982E9827982F98C8E8D0E08FEF57
:100CF00090E099838883AAE8B0E011969C938E9344
:100D0000ECE8F0E091838083259A2D9A2FEF80E71D
:100D100092E0215080409040E1F700C00000269A08
:100D20002E9A2FEF80E792E0215080409040E1F72B
:100D300000C00000279A2F9A2FEF80E792E0215001
:100D400080409040E1F700C0000025982D982FEFDB
:100D500080E792E0215080409040E1F700C0000021
:100D600026982E982FEF80E792E021508040904007
:100D7000E1F700C0000027982F9880911B02877030
:100D80002FEF829FC00111249595879595958795A2
:100D900099279983888311969C938E93918380835E
:100DA00056985E9825982D9826982E9827982F98D3
:100DB000DF91CF910895CF93E82F873080F5809110
:100DC000130190911401892B09F047C0CE2F60E5E3
:100DD00070E080E40E94CE18909314018093130178
:100DE000892BD1F460E570E082E10E944119909373
:100DF000140180931301892B79F481E090E001C004
:100E0000880FCA95EAF760E570E080950E94411965
:100E100090931401809313010E9494191EC090E0D6
:100E2000FC013797E730F105C0F4E759FF4F0C9408
:100E30002B1A209A289811C0219A29980EC0229A1C
:100E40002A980BC0239A2B9808C0529A5A9805C02A
:100E5000539A5B9802C03E9A4698CF910895209885
:100E600028982198299822982A9823982B98529864
:100E70005A9853985B983E9846980895CF93873038
:100E800040F58091130190911401892B59F560E58B
:100E900070E081E40E94CE189093140180931301B6
:100EA000892B11F0C0E011C080E590E00E9470191C
:100EB00097FF05C09093140180931301F3CFC82FBF
:100EC000C09510921401109213010E9494198C2F56
:100ED0000AC09FB18FB1807F869586959370892BCC
:100EE000809501C080E0CF9108958098889A81987C
:100EF000899A84988C9A85988D9A86988E9A8798E4
:100F00008F9A089580918C0187FF11C08091E8002D
:100F100082FD05C0809196018111F8CF11C08091AA
:100F2000E8008B770BC080919601882349F080916F
:100F3000E80080FFF8CF8091E8008E778093E8008A
:100F40000895982F973068F59093E900981739F035
:100F50007091EC002091ED005091F00003C0242F1F
:100F6000762F50E021FD02C09F5FECCF3091EB0067
:100F70003E7F3093EB003091ED003D7F3093ED00EC
:100F80003091EB0031603093EB007093EC002093D4
:100F9000ED005093F0002091EE0027FDE5CF80E0BA
:100FA00008958F708093E90081E008952091920167
:100FB000309193012617370748F06115710539F410
:100FC0002091E8002E772093E80001C0B901FC01D0
:100FD00020E06115710579F1809196018823F1F186
:100FE0008530F1F18091E80083FD3CC08091E800FC
:100FF00082FD2EC08091E80080FFEBCF2091F300AE
:101000008091F20090E0922B6115710551F08830CB
:10101000910538F421912093F100615071090196F6
:10102000F3CF21E0089709F020E08091E8008E7767
:101030008093E800CECF2111CFCF0AC080919601D6
:10104000882361F0853061F08091E80083FD0AC05B
:101050008091E80082FFF2CF80E0089582E0089559
:1010600083E0089581E008950895BC0184E00E9422
:1010700042130895BC0183E00E9442130895AAE23E
:10108000B0E0E5E4F8E00C94BB19ECE8F1E084E9A9
:1010900091E02091F10021938E179F07D1F7809165
:1010A0008D01833009F463C030F4813071F08230F7
:1010B00009F49FC0B6C08A3009F48BC08B3009F4A4
:1010C0006EC0893009F0ADC020C080918C01813A9A
:1010D00009F0A7C08091E800877F8093E8008091A5
:1010E000900190919101892B21F460E289E691E0D1
:1010F00003C060E080E090E070E00E94D60780913D
:10110000E8008B778093E8008CC080918C0181325D
:1011100009F087C08091900190919101009719F09A
:10112000029709F07EC08091E800877F8093E800F5
:101130008091E80082FD05C0809196018111F8CF71
:1011400070C02091F3008091F20090E0922B029702
:1011500031F48091F100813011F0863021F48091DA
:10116000F100809368018091E8008B7756C08091F0
:101170008C01813A09F055C08091900190919101C4
:10118000892B09F04EC08091E800877F8093E800AA
:101190008091E80080FFFCCF8091060139C08091EA
:1011A0008C018132F1F58091900190919101892B10
:1011B000C1F58091E800877F8093E8000E94820754
:1011C00080918E0180930601109266010E94D717CC
:1011D00028C080918C01813221F58091E800877FC1
:1011E0008093E8000E94820780918F0180936701BD
:1011F00018C080918C01813AA1F48091E800877F2A
:101200008093E8008091E80080FFFCCF8091670127
:101210008093F1008091E8008E778093E8000E942F
:1012200082078091E80083FFDFC180918C0190915B
:101230008D01492F50E04A30510508F0D5C1FA011F
:10124000E059FF4F0C942B1A803821F0823809F0B6
:10125000CBC108C08091890190918A01992389F0BE
:1012600082600FC0809190018F70873008F0BCC100
:101270008093E9008091EB0085FB882780F910922C
:10128000E9009091E800977F9093E8008093F10047
:101290001092F10070C1282F2D7F09F0A5C188237D
:1012A00019F0823061F0A0C180918E01813009F087
:1012B0009BC1933009F080E080938A012EC0809119
:1012C0008E0181112AC0809190018F702FEF280F1D
:1012D000263008F089C18093E9002091EB0020FFBF
:1012E0001CC0933021F48091EB00806214C0909177
:1012F000EB0090619093EB0021E030E0A90102C087
:10130000440F551F8A95E2F74093EA001092EA00D5
:101310008091EB0088608093EB001092E90080914F
:10132000E800877F8093E8000E9482075DC18111F9
:101330005BC110918E011F778091E3008078812B33
:101340008093E3008091E800877F8093E8000E940B
:1013500082078091E80080FFFCCF8091E3008068E5
:101360008093E300111102C082E001C083E080930A
:1013700096013AC18058823008F036C120918E0122
:1013800030918F012C3D53E0350779F583E08A8356
:101390008AE289834FB7F894DE01139620E03EE09D
:1013A00051E2E32FF0E050935700E49120FF03C097
:1013B000E295EF703F5FEF708E2F90E0EA3010F013
:1013C000C79601C0C0968D939D932F5F243149F736
:1013D0004FBF8091E800877F8093E8006AE270E069
:1013E000CE0101960E94D607B4C0809190019091E1
:1013F0009101432F552743305105A9F068F441303E
:10140000510509F400C14230510509F0EDC08BE5EA
:1014100090E0E5EDF1E04BC04132510529F1423257
:10142000510589F1E1C0C901992781309105A1F0E9
:1014300058F0029709F0D8C0E2E4F2E0E4918E2F70
:1014400090E0E2E4F2E030C0E4E8F2E0E4918E2FD4
:1014500090E0E4E8F2E028C0EAE5F2E0E4918E2FC3
:1014600090E0EAE5F2E020C08330910508F0BCC0CE
:10147000880F991FFC01E25EFE4F0190F081E02D84
:1014800089E090E014C08330910508F0ADC0FC0104
:10149000EE0FFF1FE85EFE4F0190F081E02DDC01B2
:1014A000AB5EBE4F8C9190E0009709F49DC02091F7
:1014B000E800277F2093E80020919201309193016A
:1014C0002817390708F4C90140E0009789F12091F5
:1014D0009601222309F43DC02530D9F12091E8007E
:1014E00023FD37C02091E80022FD2FC02091E800A5
:1014F00020FFEBCF4091F3002091F20030E0342B3D
:10150000009759F02830310540F444914093F100A0
:10151000319601972F5F3F4FF3CF41E028303105DF
:1015200009F040E02091E8002E772093E800CDCF2D
:101530004111CDCF0AC080919601882351F08530AA
:1015400041F08091E80083FD04C08091E80082FFB3
:10155000F2CF8091E8008B778093E80045C0803817
:1015600009F042C08091E800877F8093E800809175
:101570008B018093F1008091E8008E77D3CE8111AA
:1015800033C080918E0190918F019927029764F565
:101590008091E800877F8093E80010918E0110937E
:1015A0008B010E948207111106C08091E30087FD24
:1015B00002C081E001C084E08093960142E061ECCA
:1015C00081E00E94A10742E261EC84E00E94A10751
:1015D00042E261EC82E00E94A10742E260EC83E01B
:1015E0000E94A107809196018091E80083FF10C0BE
:1015F0008091E800877F8093E8008091EB00806213
:101600008093EB0005C082E190E0E0E3F2E04FCF91
:10161000AA96E3E00C94D7191F920F920FB60F927F
:1016200011242F933F934F935F936F937F938F93E7
:101630009F93AF93BF93CF93DF93EF93FF93C091AB
:10164000E900CF708091EC00D82FD17080FDD0E8F8
:101650001092E9008091F000877F8093F0007894E9
:101660000E943F081092E9008091F000886080930A
:10167000F000CD2BCF70C093E900FF91EF91DF9187
:10168000CF91BF91AF919F918F917F916F915F911A
:101690004F913F912F910F900FBE0F901F90189573
:1016A000E8EDF0E080818E7F80831092E20010925E
:1016B000DA001092E100A0EEB0E08C9181608C9392
:1016C00080818F77808319BCA7EDB0E08C918E7FED
:1016D0008C9380818F7E8083109265010895A0E0B5
:1016E000B0E0E5E7FBE00C94B619C8EDD0E08881E6
:1016F0008F7E8883E7EDF0E080818160808384E0E5
:1017000082BF81E08093650188818E7F888302EEAD
:1017100010E0F80110821092DA0081EEC82ED12C70
:10172000F601108288818F7788838881806888831A
:1017300088818F7D888319BC1092960110928B014D
:1017400010928A011092890190EEE92EF12CF70196
:1017500080818B7F808388818160888342E060E024
:1017600080E00E94A107F60180818E7F8083F801CE
:10177000808181608083808188608083F70180819F
:101780008E7F8083888180618883CDB7DEB7E8E073
:101790000C94D2191F920F920FB60F9211242F930F
:1017A0003F934F935F936F937F938F939F93AF93E9
:1017B000BF93EF93FF938091E10082FF09C0809176
:1017C000E20082FF05C08091E1008B7F8093E10001
:1017D0008091DA0080FF2AC08091D80080FF26C067
:1017E0008091DA008E7F8093DA008091D90080FFAB
:1017F00018C080E189BD82E189BD09B400FEFDCF3A
:1018000081E0809396018091650181110FC00E9453
:10181000500B0E946F0B8091E20084608093E20085
:1018200005C019BC10929601109265018091E100EB
:1018300080FF17C08091E20080FF13C08091E2001A
:101840008E7F8093E2008091E20080618093E200CD
:101850008091D80080628093D80019BC85E0809385
:1018600096018091E10084FF30C08091E20084FF06
:101870002CC080E189BD82E189BD09B400FEFDCFA5
:101880008091D8008F7D8093D8008091E1008F7E79
:101890008093E1008091E2008F7E8093E20080914E
:1018A000E20081608093E20080918B01882311F037
:1018B00084E007C08091E30087FD02C081E001C0A1
:1018C00083E080939601809196018091E10083FFEF
:1018D00027C08091E20083FF23C08091E100877FD1
:1018E0008093E10082E08093960110928B018091B9
:1018F000E1008E7F8093E1008091E2008E7F8093F3
:10190000E2008091E20080618093E20042E060E0CA
:1019100080E00E94A1078091F00088608093F00031
:10192000FF91EF91BF91AF919F918F917F916F91B7
:101930005F914F913F912F910F900FBE0F901F908D
:1019400018952091E4003091E50095E64091EC0077
:10195000842F817040FF23C08091E80080FD1DC06E
:1019600080919601882399F0853099F08091EB0061
:1019700085FD11C04091E4005091E5002417350722
:1019800029F3915011F09A01E1CF84E0089582E0AB
:10199000089583E0089581E0089580E008954091DE
:1019A000E80042FFDDCF0895EF92FF920F931F935F
:1019B000CF93DF937C018B010E94A10C811119C090
:1019C000E70101151105A1F08091E80085FD0AC02D
:1019D0008091E8008E778093E8000E94A10C882314
:1019E00081F307C089918093F10001501109E9CF7B
:1019F00080E0CDB7DEB7E6E00C94D419CF93209108
:101A00009601243011F5C091E900CF703091EC00BF
:101A1000232F217030FD20E8C22B22E02093E90023
:101A20002091E80020FF0EC040E050E060E270E04E
:101A30000E94D40C8111109294018091E8008E775D
:101A40008093E800CF70C093E900CF91089580E0C3
:101A500008959091590292FF0DC0282F28712830C7
:101A600019F4877F846006C0282F2471243011F474
:101A70008B7F886093FF0DC0282F2871283119F4BF
:101A8000877E846106C0282F2471243111F48B7E57
:101A9000886120915A0220FF0DC0382F38713830EC
:101AA00019F4877F816006C0382F3171313011F40D
:101AB0008E7F886021FF0DC0282F2871283119F4EE
:101AC000877E816106C0282F2171213111F48E7E1D
:101AD000886194FD877E08957E30A0F4663090F48E
:101AE00094E5899FF001112486E0789FE00DF11DB7
:101AF0001124E60FF11DEE0FFF1FE857FD4F8591F2
:101B00009491089580E090E00895CF93DF93823818
:101B1000910569F1B0F48133910509F477C048F477
:101B20008932910509F469C08A32910509F473C0BC
:101B300092C08533910509F45BC089339105B9F0F2
:101B40008AC0833E910591F138F4803E9105D1F031
:101B5000823E910531F17FC0863E9105D9F1873EE5
:101B60009105E9F1843E910509F075C028C02091E6
:101B7000590220FD5BC021FD59C020915A0223FD6E
:101B800061C069C08091590280FD4AC080915A02AB
:101B900080FF4CC08091590284FD39C183EE90E0F2
:101BA00038C18091590282FF3EC0F4CF8091590222
:101BB00082FD39C080915A0280FD38C0EBCF809100
:101BC0005A0281FF39C08091590284FD20C187EEFD
:101BD00090E01FC18091590283FF2BC0F4CF809108
:101BE000590283FD26C080915A0281FD25C0EBCFAA
:101BF0008091590285FD26C022C08091590285FD41
:101C00001EC080915A0283FF1DC00AC080915902F4
:101C100086FD1BC01DC08091590286FD19C015C0EC
:101C200089E390E0F6C082EE90E0F3C080EE90E0B1
:101C3000F0C086EE90E0EDC084EE90E0EAC085E36F
:101C400090E0E7C089E290E0E4C08AE290E0E1C081
:101C500081E390E0DEC0811532E5930708F05FC0B4
:101C6000811541E5940728F0982F8827816F906AA5
:101C7000D0C0883E910568F5803E910508F0C9C046
:101C8000883A9105B8F4853A910548F0855AE82FCD
:101C9000F0E0EC5DFE4F808190E09064BAC081304E
:101CA000910509F4B1C008F4B2C08430910508F47C
:101CB000AEC0AFC08F3B910508F0A9C0885AE82F8D
:101CC000F0E0EE0FFF1FE95DFE4F8081918194648B
:101CD000A0C0811520E59207A0F0AC014370552704
:101CE00021E030E002C0220F331F4A95E2F78695CB
:101CF000869540E2849FC0011124822B932B9D681E
:101D000088C0811530E4930718F09F70906A81C0F5
:101D10009C013A9521153F4108F47BC078C0EC0145
:101D2000C11586E5D807E8F5C11525E5D20748F0C5
:101D30008C2F0E94290D8F7190E0982F8827906238
:101D400068C0C11534E5D30728F09C2F8827846F1D
:101D5000906A5FC0AE01437055272C2F26952695BB
:101D6000C115D34578F481E090E002C0880F991F37
:101D70004A95E2F740E2249F90011124822B932B95
:101D80009C6847C081E090E002C0880F991F4A9587
:101D9000E2F740E2249F90011124822B932B9A6852
:101DA00038C0C1152AE5D207F8F4C11539E5D307C3
:101DB00090F08C2F8F700E94290D94E0D695C795D6
:101DC0009A95E1F7CF70D0E0DC2FCC27D0699E0147
:101DD000282BC9011EC0C11548E5D407C0F09C2FAF
:101DE0008827806F906A15C0CE0190568115904269
:101DF00070F48D2F8F710E94290D282F2F71CE0125
:101E000099279062922B05C081E090E002C080E0AB
:101E100090E0DF91CF91089568EE7EEF80E090E052
:101E20000E94151A60E082E090E00E94F71960E0DD
:101E300083E090E00E94F7191092120260E084E0C3
:101E400090E00E94F71964E082E290E00E94F719A6
:101E500060E085E090E00E94F71960E086E090E0A5
:101E60000E94F7196FEF87E090E00E94F71940E0B9
:101E700050E0BA0188E090E00E94091A60E08DE02D
:101E800090E00E94F71940E050E0BA0188E190E04C
:101E90000E94091A60E087E190E00E94F71940E093
:101EA00050E0BA018CE190E00E94091A60E070E015
:101EB00080E290E00E94151A40E050E0BA0188E10B
:101EC00090E00E94091A10921B0210921C021092BC
:101ED0001D0210921E0284E080931B0240911B029F
:101EE00050911C0260911D0270911E028FE090E0E3
:101EF0000E94091A40E050E0BA0183E190E00E949C
:101F0000091A089580911102811110921102089509
:101F10008095909166018923809366010895909140
:101F2000660180911002982B909397018091110285
:101F30008823D9F0892B809397018091060188230B
:101F400031F08091590287FF02C08EE101C086E026
:101F5000E9E9F1E090E0815028F021912223D9F3C2
:101F60009F5FF9CF91110E94820F40E250E060EF35
:101F700071E087E991E00E94521B892B21F180E2F8
:101F8000E7E9F1E0A0EFB1E001900D928A95E1F769
:101F9000E0915002F09151023097A9F08091060132
:101FA000882359F08091590287FF07C080919701DB
:101FB0008093980186E0809397010280F381E02D61
:101FC00087E991E0099508952091EF01809582239A
:101FD0008093EF01982F977099F430E0482F082EE6
:101FE000000C550B2417350759F090915A0292FFB7
:101FF00007C08595859585950E9482171092EF01FF
:102000000895CF93C0915A02C2FB992790F998176F
:1020100091F080FBC2F9C0935A026091590284E0AA
:1020200090E00E94F7196C2F82E290E00E94F7196D
:1020300082E00E94E40FCF9108958091EE0190918B
:10204000BD01891719F08F5F8770FBCF08950F933B
:102050001F93CF93DF938091BC0182958F7009F01D
:102060005AC08091B901882309F455C08091EE01CE
:102070001091BD016091B7017091B801C091BA0192
:10208000D091BB0191E06F3F09F090E0292F06E06D
:10209000811709F440C0209721F07F3F21F030E004
:1020A00003C031E001C0322F90E030FD31C0089F05
:1020B000F001099FF00D1124DF01A254BE4F1196CB
:1020C0003C911197371324C03C91361321C01296CE
:1020D0003C91129731111CC013964D915C9114974D
:1020E0004C1B5D0B483C510598F48091BC018F70EE
:1020F00080618093BC01ED53FE4F80818F708061C1
:10210000808387EB91E00E94AC020E941D1003C007
:1021100001968770BDCFDF91CF911F910F910895E8
:10212000A1E1B0E0E6E9F0E10C94B3198C0185E09F
:10213000F801DE011D9601900D928A95E1F7F801F4
:10214000E2809091B7016091B8014091BA0150913D
:10215000BB014115510531F06F3F31F481E09F3FE4
:1021600019F403C081E001C080E0F82FF1709F2EC8
:1021700080FD1BC1F80130812181C380D48087EBB1
:10218000A82E81E0B82EF090B901F601E41BF50B02
:10219000FF2009F4C7C08091BC01E83CF10508F0BC
:1021A00092C0482F407F09F051C0621311C09313B1
:1021B0000FC0FE2CE1100CC08F7080618093BC01B9
:1021C000C5010E94AC028091BC01F80185832AC13F
:1021D000C114D10431F02F3F31F481E03F3F19F4B5
:1021E00003C081E001C080E080FD03C081E08E2556
:1021F00002C080E090E0F82FF170FF2E80FF1CC03D
:102200008091EE014091BD0156E0841709F4E8C0C9
:1022100090E0589FF001599FF00D1124E254FE4FB9
:102220006181261306C06081631303C06281E612D8
:1022300003C001968770E9CFFE2CEE2009F4F2C0AE
:102240008091BC0181608093BC0149C0621306C0CB
:10225000931304C0E11002C0F80186C0C8010E94B7
:10226000A017882351F1EE2041F12091BC01822F6B
:1022700082958F7090E0029774F08091B7019091F1
:10228000B80198878F831986DB86CA862C87CE0192
:1022900007960E94AC0286E0F801A7EBB1E001903E
:1022A0000D928A95E1F70E9427100AC06217C9F0C3
:1022B000C8010E94A01781111EC0C8010E94AC0273
:1022C000FF24F394AFC0482F407F81F787EB91E064
:1022D0000E94AC0286E0F50111928A95E9F7F12C93
:1022E000A1C09313E5CFE110E3CFF8018583C801C6
:1022F0000E94AC0254C0EE2001F32091BC01822F59
:1023000082958F7090E0029734F28091B70190919E
:10231000B8019A8389831B82DD82CC822E83CE0111
:102320000196B7CFE83CF105D0F5FE2CEE2029F25E
:10233000621327C0931325C02091BC0120FD18C053
:10234000822F82958F70482F50E04115510581F002
:10235000F80125834F30510541F08F5F982F9295FA
:10236000907F822F8F70892B8583C8010E94AC02D9
:1023700086E0F801A7EBB1E001900D928A95E1F7B4
:1023800051C0C8010E94A017811185CF8091BC0166
:1023900081608093BC01C8010E94AC0243C086E00A
:1023A000F50111928A95E9F73DC0EE2009F485CF39
:1023B000C8010E94A017F82E882309F47ECF86E07A
:1023C000F801A7EBB1E001900D928A95E1F78091B9
:1023D000B7019091B8010E94E2160E94271022C016
:1023E0003D872E878D859E850E94E216292F229596
:1023F0002F70223028F49F7039F0811105C00BC076
:10240000243028F49F7049F4805E883020F0C801A1
:102410000E94AC029F2CF92C05C0F8019581907F99
:1024200099F7F9CF8F2D6196EBE00C94CF19A0E0CE
:10243000B0E0EDE1F2E10C94B619809113019091B6
:102440001401892B91F0809113028F5F8093130206
:1024500081110BC00E94F40590E0909314018093C9
:102460001301892B11F40E946B060FE112E0780131
:10247000D0E0C0E087E0C82ECC0E8C2F0E94DB0697
:102480008C2D0E94DB068C2F0E943E078F73F70174
:102490009081891721F08083DD24D39401C0D12C51
:1024A0008C2D0E943E078F73F7019781891719F0D1
:1024B000878381E001C080E0D82ADD290E942F07B0
:1024C000CF5FFFEFEF1AFF0AC730A1F61092180294
:1024D000C0911702CC2309F47BC00E94A113209164
:1024E000150230911602AC01421B530B9A019093D6
:1024F0001602809315024F3F510509F018F4452B41
:1025000019F102C02FEF30E010921702109214025E
:10251000E0911902F0911A02AF01425F5F4F90E023
:1025200030E08081882341F0281718F010829C2F1A
:1025300003C0821B80833C2F3196E417F50789F78F
:102540003093170290931402DD23A1F1E091190258
:10255000F0911A028091180290911702A0E3B2E064
:10256000AF01425F5F4F6EE1E80128813C91321775
:1025700079F0308131110CC060832C9398819227BF
:10258000282F30E0292B81E0232B09F480E091E013
:10259000319611960F5F1F4FE417F50729F78093C7
:1025A00018029093170280911802CDB7DEB7E8E0C9
:1025B0000C94D21981E0909114029923A1F3811116
:1025C000C5CF0E94A1139093160280931502BECF2F
:1025D000D111F7CF80E0EFCF089580916801089581
:1025E000CF93DF9320910601222339F020915902E5
:1025F00027FF03C060E224E002C068E021E02093EE
:10260000E9002FEF3091E800215035FD06C035ED8F
:102610003A95F1F700002111F5CF2091E80025FF50
:102620001DC0EC0180910601811105C040E050E021
:1026300068E070E003C070E040E050E0CE010E942E
:10264000D40C8091E8008E778093E80080E2FE0150
:10265000A9E6B1E001900D928A95E1F7DF91CF9163
:102660000895A0E2B0E0E7E3F3E10C94BC199FEF1A
:1026700099838A83CE0101960E94FE0CA096E2E027
:102680000C94D81980935B0270935D0260935C0296
:10269000809196018430F9F48093E9008FEF909156
:1026A000E800815095FD06C095ED9A95F1F7000080
:1026B0008111F5CF8091E80085FF0DC040E050E02A
:1026C00063E070E08BE592E00E94D40C8091E8001A
:1026D0008E778093E800089578941F920F920FB63A
:1026E0000F9211248F939F93AF93BF9380915502C4
:1026F00090915602A0915702B09158020196A11DE7
:10270000B11D8093550290935602A0935702B09347
:102710005802BF91AF919F918F910F900FBE0F9074
:102720001F9018959C014FB7F89480915502909195
:102730005602A0915702B09158024FBF821B930BD3
:1027400008952FB7F8948091550290915602A09168
:102750005702B09158022FBF08951F920F920FB6E3
:102760000F9211248F939F93AF93BF938091540244
:10277000811113C08091550290915602A091570289
:10278000B09158024196A11DB11D809355029093BE
:102790005602A0935702B0935802BF91AF919F91F8
:1027A0008F910F900FBE0F901F90189520910601EA
:1027B0002223C9F02091590227FF15C0262F269504
:1027C000269526952E31C8F4FC01E20FF11D6770A5
:1027D00081E090E001C0880F6A95EAF780959281C8
:1027E000892382830895FC0106962281621301C029
:1027F00012823196E817F907C1F708952091520225
:10280000309153022817390771F090935302809347
:102810005202E0915002F0915102309721F0008471
:10282000F185E02D0995089520914E0230914F02D7
:102830002817390771F090934F0280934E02E09170
:102840005002F0915102309721F00680F781E02D7F
:1028500009950895E0915002F0915102309729F0C6
:102860000190F081E02D0995089580E00895AAE493
:10287000B0E0EDE3F4E10C94B01985B7806885BF52
:1028800085B7806885BF84B7877F84BF0FB6F8940B
:10289000A89580916000886180936000109260002C
:1028A0000FBE90E080E80FB6F8948093610090939B
:1028B00061000FBE87E29DE0909363018093620107
:1028C0000E94500B0E946F0B8091E2008460809305
:1028D000E2007894809196018823A1F01091E9009C
:1028E0001F709091EC00892F817090FD80E8182B6B
:1028F0001092E9008091E80083FD0E943F081F705C
:102900001093E90082E084BD93E095BD9AEF97BDF6
:1029100080936E000E94F40590E0909314018093E0
:1029200013010E942F070E947507EFE1F2E0A0E378
:10293000B2E011921D9222E0ED32F207D1F78EE063
:1029400090E00E94311A8093190290931A02FC01C0
:102950000E961192E817F907E1F789EA8093800053
:1029600089E08093810024982C983F988AB18F7CCD
:102970008AB96E98479A8BB180638BB9769A8FE04B
:1029800090E00E94EB1960931B0270931C028093ED
:102990001D0290931E0267708FEF689FB001112493
:1029A00075956795759567957727709389006093FE
:1029B000880070938B0060938A0070938D00609301
:1029C0008C000E946B0680E090E00E94F119883E26
:1029D0009E4F11F00E940C0F82E090E00E94E319DC
:1029E00080933E0284E090E00E94E319182F82E277
:1029F00090E00E94E319212F30E0382B30935A02E7
:102A00002093590283E090E00E94E3190E949B17F3
:102A100080912D020E94820287E091E09093510202
:102A20008093500208E110E050E4E52E8091960179
:102A3000853009F056C030E1D32E42E1F42E80916A
:102A40009601853009F047C080919601843009F1E4
:102A5000109254020FB6F894A895009360000FBE30
:102A6000E092600083B7817F846083BF83B7816019
:102A700083BF7894889583B78E7F83BF0FB6F89411
:102A8000A89580916000886180936000109260003A
:102A90000FBE80918A01882391F20E94F40590E094
:102AA00090931401809313010E942F070E947507D1
:102AB000E0E3F2E0119222E0EE33F207D9F70E9450
:102AC0001712E0E3F2E08191811128C182E0EE3338
:102AD000F807C9F7B4CF109266010E94D7170E9479
:102AE0002A140E9417122FE3C22E22E0D22E2DE4C8
:102AF00032E0A0E3B2E0F60191918D9189272E1783
:102B00003F0719F08823C1F332C0811130C00E9401
:102B1000A1136C0180912E0290912F02C816D90644
:102B200009F474C08FEF22968FAF229723968FAF50
:102B3000239724961FAE24970E94A1138160782FBB
:102B400026969FAF8EAF269722964FAD229723965B
:102B50005FAD239724966FAD249726968FAD269769
:102B60000E94CF01D0922F02C0922E024FC090E35C
:102B7000892E92E0992EF12CF40161904F01F6011B
:102B80007080762489F1B12CAA24A3948A2D872100
:102B900021F12796BFAE27972896FFAE289791E0A0
:102BA0008A2D862109F490E029969FAF29970E94EB
:102BB000A1138160782F2B969FAF8EAF2B9727960E
:102BC0004FAD279728965FAD289729966FAD299727
:102BD0002B968FAD2B970E94CF01B394AA0CF6E0F1
:102BE000BF12D4CFF6016082F394FFEFCF1ADF0A51
:102BF0002EE0F212C1CF8FB7F89440915502509158
:102C0000560260915702709158028FBF0E942A1499
:102C100090914D02891769F080934D028FB7F89417
:102C2000409155025091560260915702709158029E
:102C30008FBF80919601843009F0F8CE83E08093B5
:102C4000E9008091E80082FFF1CE8091E80085FFE5
:102C500024C00E94A10C81111EC080E2C82ED12C7C
:102C60005E0181E2A80EB11C09C08091F100F5015E
:102C700081935F01F1E0CF1AD10869F08091E800FB
:102C800085FDF3CF8091E8008B778093E8000E9468
:102C9000A10C882399F391E001C090E08091E800B5
:102CA0008B778093E800992309F4C0CEE9A18E2F99
:102CB00090E08930910570F5FC01E658FF4F0C94C7
:102CC0002B1A19828CE0E5E5F1E0DE011296019005
:102CD0000D928A95E1F78EEF8D8707C081E0809392
:102CE000940184E089838EEF8A83CE0101960E944D
:102CF000FE0C9CCE80919401882309F497CE80E04D
:102D00000E9458178AA10E948F1790CE85E003C0B9
:102D100084E001C08FEF0E94311388CED9BCF9BC8A
:102D200009B400FEFDCF8091D8008F7D8093D8003C
:102D30008091E00082608093E0008091E00081FD5E
:102D4000FCCF109266010E94D71779CE80E090E008
:102D50000E94141480E090E00E94FE131092100272
:102D60000E948F0F0895CF92DF92FF920F931F93CF
:102D7000CF93DF936C0100912D0280911202082BFA
:102D8000C7E0D0E010E0C8010C2E02C095958795F1
:102D90000A94E2F780FD04C02197A8F7F12C09C03E
:102DA000FC2EB6018C2F0E946C0D0E94850D0197A0
:102DB00099F38F2DDF91CF911F910F91FF90DF90AD
:102DC000CF900895CF93DF93EC010E94B316BE011C
:102DD0000E946C0D0E94850DDF91CF910895292FDF
:102DE0009E3078F5863068F590E036E0239F800DC0
:102DF000911D1124682F677023E0969587952A9579
:102E0000E1F7FC01EE0FFF1FE80FF91FE25AFD4F3B
:102E100040E050E080E0219130E0062E02C036957F
:102E200027950A94E2F721703327042E01C0220F60
:102E30000A94EAF7822B4F5F5F4F4330510559F7F1
:102E4000089580E00895292F9E3088F5863078F522
:102E500090E036E0239F800D911D1124282F2770CC
:102E600051E001C0550F2A95EAF723E09695879522
:102E70002A95E1F7FC01EE0FFF1FE80FF91FE25A58
:102E8000FD4F20E030E070E04081CB01022E02C017
:102E9000969587950A94E2F781708195842785231A
:102EA000842781932F5F3F4F2330310569F70895C1
:102EB000A0E2B0E0EEE5F7E10C94BB190E948202BB
:102EC000182F809194018823A9F02FEF80E792E0DA
:102ED000215080409040E1F700C0000085E08983E8
:102EE000812F0E946E028A838EEF8B83CE01019622
:102EF0000E94FE0C10932D020E94A616A096E3E0FD
:102F00000C94D71921E030E001C0220F8A95EAF72E
:102F1000209580912D0282230E945817089521E068
:102F200030E001C0220F8A95EAF780912D02822BB2
:102F30000E9458170895809312020E94A6160895C1
:102F4000CF93FC018081918123813481232B31F047
:102F50009F3F31F491E08F3F19F403C091E001C02D
:102F600090E0C92FC17090FD1CC0808191810E94AA
:102F7000E21692959F70963079F010F4925001C04D
:102F80009A50923088F4803F71F018F4883E60F4D3
:102F90000AC0843F49F407C0883E28F0813F21F4ED
:102FA00002C0C0E001C0C1E08C2FCF910895809194
:102FB0000601882331F08091590287FF02C08EE11B
:102FC00001C086E0E9E9F1E0DF011D928A95E9F7A9
:102FD0000E94A6160895882321F00E94880F0E945F
:102FE0008F0F0895882339F090916601892B809383
:102FF00066010E948F0F0895882349F1682F8CEF96
:10300000860F813A28F487E991E00E94D6130CC01C
:1030100080E2860F883058F4677081E001C0880F25
:103020006A95EAF70E94880F0E948F0F08958BE53A
:10303000860F833028F480E090E00E9414140895F5
:10304000685A673120F480E090E00E94FE130895F2
:10305000CF93882309F49AC0C82F8CEF8C0F813A44
:1030600008F05EC0809106018823E1F0809159024A
:1030700087FF18C0EC2FE695E695E695F0E0E95657
:10308000FE4F8281282F30E04C2F477081E090E086
:1030900002C0880F991F4A95E2F782239323892B58
:1030A00059F411C0E9E9F1E08191C81729F081E0F4
:1030B000EF39F807C9F707C06C2F87E991E00E9444
:1030C000D6130E948F0F809106018823C9F080914A
:1030D000590287FF15C0AC2FA695A695A695B0E01E
:1030E000A956BE4FC77081E090E001C0880FCA9515
:1030F000EAF712969C911297892B12968C9320C016
:10310000A9E9B1E0EFEF80E09D91C917C9F0EF3F69
:1031100019F4911101C0E82F8F5F8630A9F72DC0F7
:1031200080E28C0F883078F4C77081E090E001C0B5
:10313000880FCA95EAF790916601892B8093660102
:103140000E948F0F23C0EBE5EC0FE33040F4F0E07A
:10315000EC5DFE4F808190E00E94141417C0C85AA5
:10316000C731A0F4EC2FF0E0EE0FFF1FE95DFE4F3A
:10317000808191810E94FE1309C0EF3F09F30E2E5A
:10318000000CFF0BE956FE4FC283DACFCF910895B2
:103190001092B9008CE08093B8000895A0E0B0E0F0
:1031A000E4EDF8E10C94B319B82EEB010E94A113E1
:1031B0006C01C431D10558F0CF3F8FEFD80759F0DB
:1031C000CE0164E170E00E9498197B0107C0EE24F3
:1031D000E394F12C03C025E0E22EF12C84E8A82E24
:1031E00094EA992E1092BC009092BC000E94A11308
:1031F0008C018091BC0087FD07C0C8010E9492131A
:10320000E816F906B0F729C08091B900887F8830A8
:1032100041F08091B900887F803119F00FEF1FEFE6
:103220001EC0B092BB00A092BC000E94A1138C01F2
:103230008091BC0087FD07C0C8010E949213E81668
:10324000F906B0F70AC08091B900887F883111F083
:10325000803421F700E010E00EC00EEF1FEFCF3FEB
:103260008FEFD80709F4BECFC6010E949213C8178A
:10327000D90708F0B7CFC801CDB7DEB7EBE00C94A3
:10328000CF190F931F93CF93DF93EB018093BB0074
:1032900084E88093BC000E94A1138C018091BC0043
:1032A00087FD0DC0CF3F8FEFD807C1F3C8010E9443
:1032B0009213C817D90790F78EEF9FEF0CC020919B
:1032C000B900287F81E090E0283211F480E090E09E
:1032D000919581959109DF91CF911F910F9108955B
:1032E0000F931F93CF93DF93EC0184E88093BC008E
:1032F0000E94A1138C018091BC0087FD0DC0CF3FBF
:103300008FEFD807C1F3C8010E949213C817D907DD
:1033100090F78EEF9FEF03C08091BB0090E0DF91AC
:10332000CF911F910F91089584E98093BC00089577
:10333000AA1BBB1B51E107C0AA1FBB1FA617B707DB
:1033400010F0A61BB70B881F991F5A95A9F78095F7
:103350009095BC01CD0108952F923F924F925F92BC
:103360006F927F928F929F92AF92BF92CF92DF9295
:10337000EF92FF920F931F93CF93DF93CDB7DEB7FA
:10338000CA1BDB0B0FB6F894DEBF0FBECDBF09948E
:103390002A88398848885F846E847D848C849B84E5
:1033A000AA84B984C884DF80EE80FD800C811B81F3
:1033B000AA81B981CE0FD11D0FB6F894DEBF0FBE22
:1033C000CDBFED010895F999FECF92BD81BDF89A68
:1033D000992780B50895A6E1B0E044E050E00C9450
:1033E0001D1AA8E1B0E042E050E00C941D1A262F0F
:1033F000F999FECF92BD81BDF89A019700B40216EB
:1034000039F01FBA20BD0FB6F894FA9AF99A0FBE98
:1034100008950396272F0E94F8190E94F719252F67
:103420000E94F819242F0C94F8190196272F0E9456
:10343000F8190C94F719DC01CB01FC01F999FECFC6
:1034400006C0F2BDE1BDF89A319600B40D9241502C
:103450005040B8F70895EE0FFF1F0590F491E02D4E
:1034600009940F931F93CF93DF938230910510F44B
:1034700082E090E0E0918102F091820220E030E071
:10348000A0E0B0E0309719F14081518102811381B1
:1034900048175907C8F08417950769F4109731F059
:1034A00012960C93129713961C9327C000938102D7
:1034B0001093820222C02115310519F042175307DB
:1034C00018F49A01BD01EF01DF01F801DBCF2115EE
:1034D0003105F9F0281B390B2430310580F48A813D
:1034E0009B816115710521F0FB019383828304C0E8
:1034F0009093820280938102FE01329644C0FE01C5
:10350000E20FF31F8193919322503109398328836D
:103510003AC020917F0230918002232B41F4209108
:103520000201309103013093800220937F022091A9
:103530000001309101012115310541F42DB73EB74D
:103540004091040150910501241B350BE0917F024D
:10355000F0918002E217F307A0F42E1B3F0B28170F
:10356000390778F0AC014E5F5F4F2417350748F0FC
:103570004E0F5F1F5093800240937F02819391937F
:1035800002C0E0E0F0E0CF01DF91CF911F910F91F9
:103590000895CF93DF93009709F481C0FC0132971F
:1035A00013821282A0918102B0918202109781F45D
:1035B00020813181820F931F20917F023091800200
:1035C0002817390751F5F0938002E0937F0267C016
:1035D000ED0120E030E0CE17DF0740F44A815B8147
:1035E0009E0141155105F1F0EA01F5CFD383C28365
:1035F00040815181840F951FC817D90759F48881DC
:103600009981840F951F0296918380838A819B8183
:10361000938382832115310529F4F0938202E0938C
:1036200081023DC0E901FB83EA8349915991C40FAE
:10363000D51FEC17FD0761F480819181840F951FE0
:103640000296E90199838883828193819B838A838F
:10365000E0E0F0E012968D919C911397009719F09D
:10366000FD01DC01F7CF8D919C9111979D012E5F9B
:103670003F4F820F931F20917F02309180022817C5
:10368000390769F4309729F410928202109281026E
:1036900002C013821282B0938002A0937F02DF9156
:1036A000CF910895FB01DC0104C08D910190801938
:1036B00021F441505040C8F7881B990B0895F894A5
:0236C000FFCF3A
:1036C20000008302200001ED12F012EC123A0835DC
:1036D200083408200040226D950173010601E701BC
:1036E20000022002818283E200E900EA00B500B60E
:1036F20000B700CD008301CC008A01920194012120
:1037020002230224022502260227022A02B300B45F
:10371200006F00700062726130672F364F71614432
:023722000000A5
:00000001FF
