:100000000C9455030C9472030C9472030C947203B9
:100010000C9472030C9472030C9472030C9472038C
:100020000C9472030C9472030C947B0D0C94BD0C15
:100030000C94B8200C9472030C9472030C94720309
:100040000C9472030C9472030C9472030C9472035C
:100050000C9472030C94850E0C9472030C9472032E
:100060000C9472030C9472030C9472030C9472033C
:100070000C9472030C9472030C9472030C9472032C
:100080000C9472030C9472030C9472030C9472031C
:100090000C9472030C9472030C9472030C9472030C
:1000A0000C9472030C9472030C94720399069906D3
:1000B000CC06CC06370755075F085F086007D407F2
:1000C000E507E507D00AF70AA50CF70AA50C430BCC
:1000D000660BA50C5B0C6B0C101E1D1EBF1B381E87
:1000E000281E361E361E341E361E34233923432363
:1000F00037233C2341233F236D247024732476242B
:1001000079247C247F2405010980A101850319013C
:100110002AB700150126B700950175108100C005AA
:100120000C0901A101850419012AA002150126A0CC
:1001300002950175108100C005010906A10185061F
:10014000050719E029E715002501950875018102C9
:100150000507190029EF1500250195F075018102A9
:100160000508190129059505750191029501750389
:100170009101C005010902A1010901A100050919A8
:10018000012908150025019508750181020501095D
:100190003009311581257F950275088106093815CA
:1001A00081257F950175088106050C0A38021581A5
:1001B000257F950175088106C0C00660FF0961A111
:1001C000010962150026FF00952075088102096368
:1001D000150026FF00952075089102C0050109064B
:1001E000A101050719E029E715002501950875010A
:1001F00081029501750881010507190029FF150085
:1002000026FF009506750881000508190129059546
:100210000575019102950175039101C009027400F1
:10022000040100A0FA0904000001030101000921F2
:1002300011010001224000070581030800010904A3
:100240000100020300000009211101000122220027
:1002500007058303200001070504032000010904AA
:1002600002000103010200092111010001224700DF
:1002700007058203080001090403000103000000D0
:10028000092111010001226D0007058503200001ED
:1002900012010002000000089732764901000102B5
:1002A000000120034500720067006F0044006F00EA
:1002B0007800200045005A00200047006C006F00C5
:1002C0007700000028035A0053004100200054002A
:1002D0006500630068006E006F006C006F006700CF
:1002E000790020004C0061006200730000000403EC
:1002F00009042E004C002A00E100354100000100F5
:10030000140004001D6134004D0001001A001500A6
:100310001B00AE5D2A000100090016000600500017
:100320002C0001001300170005004F004A000100D7
:100330000A000700050000006564010001000000DC
:1003400001000000E30001000100000001000000C6
:10035000E20001000D000B000E0000002961010009
:100360000F001100100052004B000100180008009F
:1003700037005100280001001C000C0036002F003F
:100380002B00010001001200010030004E000100AE
:1003900031003468E500015100002900010001002E
:1003A0000100010000003A001E02200222022E007D
:1003B000B85D3B001F02210223020100B75D3C0033
:1003C0002F0226022F000100CB5C3D0030022702E5
:1003D00030000100B65D3E003102350035020000FC
:1003E000C45C01000100000001000000CA5C0100C3
:1003F0000100000001000000C35C3F0052005100FA
:1004000024020000B55D4000240021001E00010010
:10041000B45D4100250022001F003700C65C420089
:100420002600230020002700C75C430025022E027F
:1004300031002E00010044004500010001000100D0
:1004400000000100010001000100010000000100A6
:100450000100010001000100010001000100EF00A6
:100460000100010001000100ED00EE000100F100BB
:10047000010001000100F0000100F2000100010094
:100480000100010001000000010001000100000066
:100490000100000001000100010000000100000057
:1004A0000100010001000100010000000100010045
:1004B000010001000100A90001000100010001008C
:1004C000AC00AA00B600010001000100AB00A800CA
:1004D0000100010001000100010001000100005CB9
:1004E0000100AE000100010000000044345400741B
:1004F000648400554565008575950036264600667E
:100500005676009686A6003727470077678700381B
:100510002848008878980039294900695979009954
:1005200089A9003A2A4A006A5A7A003B2B4B006B91
:100530005B7B004C3C5C007C6C8C005D4D6D008DE9
:100540007D9D003E2E4E006E5E7E0144345401744B
:100550006484015545650185759501362646016619
:100560005676019686A601372747017767870138B7
:1005700028480188789801392949016959790199F0
:1005800089A9013A2A4A016A5A7A013B2B4B016B2D
:100590005B7B014C3C5C017C6C8C015D4D6D018D85
:1005A0007D9D013E2E4E016E5E7E00010101010126
:1005B000010101010202020202020202020303031C
:1005C00003030303030404040404040405050505EC
:1005D00005060606060607070707070808080809AC
:1005E0000909090A0A0A0B0B0B0C0C0C0D0D0D0E58
:1005F0000E0E0F0F0F1010111111121213131414ED
:10060000151516161717181819191A1A1B1B1C1D61
:100610001D1E1E1F202021222223242425262627BA
:100620002829292A2B2C2D2D2E2F303132323334EC
:1006300035363738393A3B3C3D3E3F4041424344F2
:1006400045464748494A4C4D4E4F505153545556D4
:1006500058595A5B5D5E5F616264656668696B6C80
:100660006D6F7072737577787A7B7D7E80828385FB
:1006700087888A8C8E8F91939596989A9C9EA0A23B
:10068000A3A5A7A9ABADAFB1B3B5B7BABCBEC0C245
:10069000C4C6C9CBCDCFD1D4D6D8DBDDDFE2E4E709
:1006A000E9EBEEF0F3F5F8FAFDFF11241FBECFEFF2
:1006B000DAE0DEBFCDBF12E0A0E0B1E0E6EAF1E6AD
:1006C00002C005900D92A236B107D9F725E0A2E647
:1006D000B2E001C01D92A43CB207E1F70E94D01A1B
:1006E0000C94D1300C940000A5E2B0E0EAE7F3E00E
:1006F0000C942D2EFC018081918123813481232B48
:1007000031F09F3F31F491E08F3F19F403C091E045
:1007100001C090E090FD10C57F0185E0DE0191965B
:1007200001900D928A95E1F7F701228189A19AA1A2
:10073000222349F00E941129182F682F89A19AA11C
:100740000E94812903C00E944D29182F69A17AA116
:10075000812F0E9439158C018091B605882399F06C
:10076000F7018281882311F086E001C087E0898348
:10077000F70180818A8381818B838EEF8C83CE0108
:1007800001960E94872B033BFDE51F0759F0043BB0
:100790002DE5120709F442C0033C8CE5180709F067
:1007A0007BC060C0F7018281882309F4BCC09091AE
:1007B000E50381E0890F8770987F853020F4892BCD
:1007C0008093E50302C09093E5038091E503877071
:1007D000FFEF8F9FC001112495958795959587957B
:1007E0009927909389008093880090938B00809341
:1007F0008A0090938D0080938C004091E503509186
:10080000E6036091E7037091E8038FE090E00E94B7
:10081000082F8091F7030E941E2385C0F701828173
:10082000882309F480C08091E50383FB222720F907
:1008300091E0922790FB83F98093E503992329F0B7
:1008400040E060E080E00E94400F4091E50350915D
:10085000E6036091E7037091E8038FE090E00E9467
:10086000082F61C0F7018281882309F456C4909152
:10087000BF058091B9059F3F59F41092BF05816073
:100880008093B90540E060E080E00E94400F45C4DD
:100890009FEF9093BF053DC1063BFDE51F07A9F003
:1008A00028F4053B8DE5180751F038C0073B9DE55E
:1008B0001907C1F0083BEDE51E0719F12FC0F7013C
:1008C0008281882309F429C457C1F70182818823D2
:1008D00009F423C481E00E94C72140E86FEF86E558
:1008E00090E00CC0F7018281882309F416C481E0EE
:1008F0000E94C7214FEF6FEF8CEA90E00E94342BEB
:100900000CC4F7018281882309F407C481E00E94A6
:10091000C7214FEF6FEF8BE190E0F0CF0E3AFDE58E
:100920001F0709F42FC180917C05882309F487C033
:10093000D0906E02C090DB030E94AC2088579C4E82
:100940009093180480931704F7018281882309F497
:100950007AC08C2D8D298D7909F06CC00115F5E5D3
:100960001F07B0F4011523E5120708F068C0011550
:1009700080E5180740F4011590E4190788F5063E54
:100980001105A9F55CC00115E2E51E0780F557C009
:100990000115F9E51F0750F4011528E5120708F0C5
:1009A0004EC0043185E5180711F549C0C8019056BD
:1009B00081159042E0F4F7018581807FA9F4812FB1
:1009C0008F718231B1F028F48230A1F581EE90E090
:1009D00012C08431A1F1863169F586EE92E10BC037
:1009E000F7018581807F59F1C801992704C0C801AA
:1009F00002C085EE90E010927B058832910530F4BC
:100A00008E319105D0F40497A8F00EC08D32910577
:100A100059F018F48A9789F00DC08C34910569F06B
:100A20008D32924051F006C082E080937B050E9497
:100A3000711703C00E94422102C00E947117F70182
:100A400082818111BBC080916E0282720B3C2CE5C9
:100A5000120709F480C098F5063CECE51E0709F47E
:100A600066C0B8F4043C2CE5120709F456C008F03F
:100A700059C0033CECE51E0709F00EC19091BA0580
:100A800081E089278093BA05109220018091B905F1
:100A900040C0083CFCE51F0709F453C008F44CC0F3
:100AA000093C9CE5190709F451C00A3CECE51E0716
:100AB00009F0F2C043E450E260E570E25AC0003D44
:100AC000FCE51F0709F45AC098F40D3C9CE5190792
:100AD00009F44BC008F444C00E3CFCE51F0709F4C0
:100AE0004BC00F3C2CE5120709F0D6C085E047C08B
:100AF000073D8CE5180738F4023D9CE5190708F01E
:100B00000CC382E13CC00F35EDE51E0709F405C3B7
:100B1000C3C081608093B90500C34BE850E265E92A
:100B200070E227C045E950E26BE870E222C047E777
:100B300050E261E870E21DC041E850E267E770E210
:100B400018C04DE550E26AE670E213C04AE650E292
:100B50006DE570E20EC040E550E263E470E209C06A
:100B60004DE55EE16BE67EE104C04BE65EE16DE5DE
:100B70007EE10E946121D1C281E001C08DE00E942E
:100B8000C721CBC2F7018281882309F4C6C28091B4
:100B90007C05882319F00E944221BFC210926E0288
:100BA0000E9464170E94AC2088579C4E90931804B2
:100BB0008093170481E080937C05AFC20C35FDE57E
:100BC0001F0709F464C060F401158CE51807A9F04B
:100BD0000F3D9CE5190709F05FC00E94EE164CC05E
:100BE0000E35EDE51E0709F44AC008F452C0093A73
:100BF0002DE5120709F440C04FC010926E020E940A
:100C0000352A8FEF94E3ECE081509040E040E1F72B
:100C100000C00000F89481E08093E00080E28093BF
:100C2000D8001092C9008FE19EE40197F1F700C04F
:100C300000001DBA109268001CBC10BE1FBA1092B2
:100C40007A0010926E0010926F0010927100109254
:100C500072001092C9001092BC0014B817B81AB8EC
:100C60001DB810BA1092BC0015B818B81BB81EB841
:100C700011BA0C94003F51C20E9406234EC28091CB
:100C8000690282FB882780F991E0892703C081E00F
:100C900001C080E00E94E317F70182810081118189
:100CA000882349F0C8010E941129D82E682FC80155
:100CB0000E94812904C0C8010E944D29D82EB80184
:100CC0008D2D0E9439150E945215B82E192F982E7D
:100CD000F7010281A580A2949FE0A9228091BA0326
:100CE0008770B9F00023A9F0812F807F803421F034
:100CF00080E28B0D883068F08091690282FF09C024
:100D000082E00E94C6178091BA038770DD24D394D5
:100D10008111D12CC12EC2948FE0C8228C2D90E07D
:100D20008C30910508F0CBC1FC01EA5AFF4F0C94BE
:100D30009D2F812F807F1F70882311F01295107FC7
:100D40000023B9F0112309F4A8C180E28B0D88308B
:100D500010F0911006C080916E02182B10936E0255
:100D600005C080917B05182B10937B050E9471179D
:100D700094C18B2D0E945A2A112309F4A0C180E24C
:100D80008B0D883080F1992071F1109580917B0551
:100D9000182310937B052AC0812F807F1F7080321B
:100DA00011F01295107F8B2D992021F0F1E09F1604
:100DB000D9F147C08091690282FD1BC0002369F010
:100DC000112339F080916E02182B10936E020E944D
:100DD000711780E00E948F2A72C180E00E945A2A17
:100DE000112309F46CC1812F0E946A170E947117A8
:100DF00066C1002381F08091DB03AA2051F021E03D
:100E0000A21207C0182B181709F459C11093DB035D
:100E100056C1812B10C0AA2021F081E0A81609F448
:100E20004EC10E9464171FC0002341F091E09A1543
:100E300008F445C1812F0E94502A41C1A1103FC131
:100E400012C0002319F0AA20A9F327C1AA2059F043
:100E5000893309F031C1EFEFF7EE23E0E150F040C4
:100E60002040E1F727C1812F0E94492A28C1812F04
:100E700086958695837019F0813061F020C100233A
:100E800021F08B2D912F937002C080E090E00E94A2
:100E90001F211BC1002321F08B2D912F937002C0C5
:100EA00080E090E00E94092110C18B2D002319F0F1
:100EB0000E94732802C00E94B9270E94CE2805C153
:100EC000812F8370A9F50111FEC04B2D42954695E7
:100ED0004770440F440F8B2D8F7090E09C01042EBF
:100EE00001C0220F0A94EAF7B4FE08C08FE090E038
:100EF00001C0880F4A95EAF7809501C080E01695F9
:100F000016951370123069F088F49091DC0311305B
:100F100019F0822B892302C0922B892B0E94F92978
:100F2000D2C0822B9091DC038927F8CF822BF6CF99
:100F3000002319F0812F817001C08695882309F460
:100F4000C2C04B2D429546954770440F440F8B2DE0
:100F50008F7090E09C01042E01C0220F0A94EAF7E2
:100F6000B4FE08C08FE090E001C0880F4A95EAF710
:100F7000809501C080E0169516951370123059F0D7
:100F800078F49091F703113019F0822B892309C06E
:100F9000922B892B06C0822B9091F703892701C0E1
:100FA000822B0E94B6298FC01F70002339F0812F39
:100FB0000E94ED298B2D0E94502A85C08B2D0E9406
:100FC000492A812F0E94E0297EC08B2D92EF99162D
:100FD00069F1991538F0E0EF9E1659F0F1EF9F1680
:100FE00001F157C023EF921641F194EF9916A9F041
:100FF00050C0002369F0A11062C01F7181E090E031
:1010000001C0880F1A95EAF79091F70389271FC04E
:10101000E1E0EA1508F453C0F0CF8091690282FD47
:1010200019C0002329F0812F8F7126C00023D9F326
:10103000812F8F710E94E02942C0002339F01F7177
:1010400081E001C0880F1A95EAF701C080E00E9494
:10105000B62935C0002399F01F71812F0E94ED2918
:101060008091690282FF07C0F8E01F9FC001112430
:1010700083608093BA03812F0E94ED2920C081E014
:101080000E94C61721E02A15D0F482E00E94C617FC
:1010900016C0002321F0AA2031F28B2D9BCEAA206E
:1010A00039F2893349F48FEF97EEE3E081509040B5
:1010B000E040E1F700C000008B2D0E945A2A88EF23
:1010C0008C0D843010F40E943521DD20A9F0809130
:1010D000BA0380FD11C0F70112828595859585952B
:1010E0000E94ED29C7010E9474038091BA0385957F
:1010F000859585950E94E02985E0F701DE0111962E
:1011000001900D928A95E1F709811A81C8010E9428
:101110004D29B8010E9439150FC08091BA0387701C
:1011200059F0F7018281882339F08091690282FFAA
:1011300003C082E00E94C617A596EBE00C94492EEE
:101140008091940287FF11C08091E80082FD05C064
:101150008091B8058111F8CF11C08091E8008B779C
:101160000BC08091B805882349F08091E80080FF8A
:10117000F8CF8091E8008E778093E8000895982F4B
:10118000973068F59093E900981739F07091EC006A
:101190002091ED005091F00003C0242F762F50E0F5
:1011A00021FD02C09F5FECCF3091EB003E7F30937A
:1011B000EB003091ED003D7F3093ED003091EB007E
:1011C00031603093EB007093EC002093ED0050936E
:1011D000F0002091EE0027FDE5CF80E008958F70AC
:1011E0008093E90081E0089520919A0230919B025A
:1011F0002617370748F06115710539F42091E8008A
:101200002E772093E80001C0B901FC0120E06115B0
:10121000710579F18091B8058823F1F18530F1F1FC
:101220008091E80083FD3CC08091E80082FD2EC0E3
:101230008091E80080FFEBCF2091F3008091F200D5
:1012400090E0922B6115710551F08830910538F4CA
:1012500021912093F100615071090196F3CF21E0B3
:10126000089709F020E08091E8008E778093E800ED
:10127000CECF2111CFCF0AC08091B805882361F06D
:10128000853061F08091E80083FD0AC08091E8001C
:1012900082FFF2CF80E0089582E0089583E0089510
:1012A00081E00895089580917002089580936A0204
:1012B00070936C0260936B028091B805843001F5E5
:1012C00085E08093E9008FEF9091E800815095FDD3
:1012D00006C095ED9A95F1F700008111F5CF809148
:1012E000E80085FF0DC040E050E063E070E08AE672
:1012F00092E00E945D2B8091E8008E778093E80059
:101300000895BC0184E00E9456090895BC0183E061
:101310000E945609089522E02093E9002FEF3091B2
:10132000E800215035FD06C035ED3A95F1F7000093
:101330002111F5CF2091E80025FF0BC040E050E0DF
:1013400065E070E00E945D2B8091E8008E778093CD
:10135000E8000895CF93DF9320910A01222339F00A
:101360002091680227FF03C060E225E002C068E028
:1013700021E02093E9002FEF3091E800215035FD66
:1013800006C035ED3A95F1F700002111F5CF209117
:10139000E80025FF1DC0EC0180910A01811105C004
:1013A00040E050E068E070E003C070E040E050E0F2
:1013B000CE010E945D2B8091E8008E778093E8003B
:1013C00080E2FE01A1E7B2E001900D928A95E1F77B
:1013D000DF91CF910895AAE2B0E0E1EFF9E00C943B
:1013E000352EE4E9F2E08CE992E02091F1002193BE
:1013F0008E179F07D1F780919502833009F463C05F
:1014000030F4813071F0823009F49FC0B6C08A3068
:1014100009F48BC08B3009F46EC0893009F0ADC07F
:1014200020C080919402813A09F0A7C08091E80021
:10143000877F8093E8008091980290919902892B90
:1014400021F460E281E792E003C060E080E090E098
:1014500070E00E94F4088091E8008B778093E800A8
:101460008CC080919402813209F087C080919802EB
:1014700090919902009719F0039709F07EC080912E
:10148000E800877F8093E8008091E80082FD05C036
:101490008091B8058111F8CF70C02091F300809140
:1014A000F20090E0922B029731F48091F1008130AC
:1014B00011F0863021F48091F100809370028091C8
:1014C000E8008B7756C080919402813A09F055C0AC
:1014D0008091980290919902892B09F04EC08091D9
:1014E000E800877F8093E8008091E80080FFFCCFD0
:1014F00080910A0139C0809194028132F1F5809186
:10150000980290919902892BC1F58091E800877F1C
:101510008093E8000E94A0088091960280930A01BF
:1015200010926E020E94352A28C080919402813266
:1015300021F58091E800877F8093E8000E94A00851
:101540008091970280936F0218C080919402813A33
:10155000A1F48091E800877F8093E8008091E80003
:1015600080FFFCCF80916F028093F1008091E800B2
:101570008E778093E8000E94A0088091E80083FFA6
:10158000E4C18091940290919502492F50E04A3035
:10159000510508F0DAC1FA01EE59FF4F0C949D2F66
:1015A000803821F0823809F0D0C108C080919102C2
:1015B00090919202992389F082600FC080919802E5
:1015C0008F70873008F0C1C18093E9008091EB00F3
:1015D00085FB882780F91092E9009091E800977FB9
:1015E0009093E8008093F1001092F10070C1282FD1
:1015F0002D7F09F0AAC1882319F0823061F0A5C1BE
:1016000080919602813009F0A0C1933009F080E00A
:10161000809392022EC08091960281112AC08091FF
:1016200098028F702FEF280F263008F08EC180931C
:10163000E9002091EB0020FF1CC0933021F4809141
:10164000EB00806214C09091EB0090619093EB00EE
:1016500021E030E0A90102C0440F551F8A95E2F74E
:101660004093EA001092EA008091EB00886080933A
:10167000EB001092E9008091E800877F8093E800FA
:101680000E94A00862C1811160C1109196021F776B
:101690008091E3008078812B8093E3008091E800C3
:1016A000877F8093E8000E94A0088091E80080FF77
:1016B000FCCF8091E30080688093E300111102C0A9
:1016C00082E001C083E08093B8053FC1805882303A
:1016D00008F03BC120919602309197022C3D53E0D7
:1016E000350779F583E08A838AE289834FB7F894D6
:1016F000DE01139620E03EE051E2E32FF0E050934C
:101700005700E49120FF03C0E295EF703F5FEF7058
:101710008E2F90E0EA3010F0C79601C0C0968D93EE
:101720009D932F5F243149F74FBF8091E800877F59
:101730008093E8006AE270E0CE0101960E94F4080E
:10174000B4C08091980290919902432F552743305D
:101750005105A9F068F44130510509F405C1423042
:10176000510509F0F2C084E790E0ECE1F2E04BC0F3
:101770004132510529F14232510589F1E6C0C901D2
:10178000992781309105A1F058F0029709F0DDC04A
:10179000E2EAF2E0E4918E2F90E0E2EAF2E030C07B
:1017A000EEEEF2E0E4918E2F90E0EEEEF2E028C053
:1017B000E4ECF2E0E4918E2F90E0E4ECF2E020C063
:1017C0008430910508F0C1C0880F991FFC01E05DCD
:1017D000FE4F0190F081E02D89E090E014C084304C
:1017E000910508F0B2C0FC01EE0FFF1FE85DFE4F4F
:1017F0000190F081E02DDC01AC5DBE4F8C9190E05A
:10180000009709F4A2C02091E800277F2093E80008
:1018100020919A0230919B022817390708F4C901D8
:1018200040E0009789F12091B805222309F43DC0DA
:101830002530D9F12091E80023FD37C02091E80040
:1018400022FD2FC02091E80020FFEBCF4091F30054
:101850002091F20030E0342B009759F02830310508
:1018600040F444914093F100319601972F5F3F4F30
:10187000F3CF41E02830310509F040E02091E80045
:101880002E772093E800CDCF4111CDCF0AC08091B3
:10189000B805882351F0853041F08091E80083FD40
:1018A00004C08091E80082FFF2CF8091E8008B773E
:1018B0008093E8004AC0803809F047C08091E80072
:1018C000877F8093E800809193028093F10080915C
:1018D000E8008E77D3CE811138C080919602909126
:1018E0009702992702978CF58091E800877F809373
:1018F000E80010919602109393020E94A008111123
:1019000006C08091E30087FD02C081E001C084E051
:101910008093B80542E061EC81E00E94BF0842E09C
:1019200061EC82E00E94BF0842E261EC85E00E9427
:10193000BF0842E261EC83E00E94BF0842E260EC33
:1019400084E00E94BF088091B8058091E80083FF81
:1019500010C08091E800877F8093E8008091EB00C1
:1019600080628093EB0005C082E190E0E0E9F2E064
:101970004ACFAA96E3E00C94512E1F920F920FB615
:101980000F9211242F933F934F935F936F937F9305
:101990008F939F93AF93BF93CF93DF93EF93FF9377
:1019A000C091E900CF708091EC00D82FD17080FDFC
:1019B000D0E81092E9008091F000877F8093F000DA
:1019C00078940E94EB091092E9008091F000886001
:1019D0008093F000CD2BCF70C093E900FF91EF9181
:1019E000DF91CF91BF91AF919F918F917F916F9137
:1019F0005F914F913F912F910F900FBE0F901F90CD
:101A00001895E8EDF0E080818E7F80831092E200EF
:101A10001092DA001092E100A0EEB0E08C918160AB
:101A20008C9380818F77808319BCA7EDB0E08C9177
:101A30008E7F8C9380818F7E808310926D020895BB
:101A4000A0E0B0E0E6E2FDE00C94302EC8EDD0E07E
:101A500088818F7E8883E7EDF0E0808181608083DC
:101A600084E082BF81E080936D0288818E7F8883CD
:101A700002EE10E0F80110821092DA0081EEC82E1A
:101A8000D12CF601108288818F77888388818068C5
:101A9000888388818F7D888319BC1092B805109245
:101AA0009302109292021092910290EEE92EF12C84
:101AB000F70180818B7F808388818160888342E009
:101AC00060E080E00E94BF08F60180818E7F808305
:101AD000F801808181608083808188608083F70144
:101AE00080818E7F8083888180618883CDB7DEB7D7
:101AF000E8E00C944C2E1F920F920FB60F92112417
:101B00002F933F934F935F936F937F938F939F9305
:101B1000AF93BF93EF93FF938091E10082FF09C0E1
:101B20008091E20082FF05C08091E1008B7F80936D
:101B3000E1008091DA0080FF2AC08091D80080FF08
:101B400026C08091DA008E7F8093DA008091D900E0
:101B500080FF18C080E189BD82E189BD09B400FE23
:101B6000FDCF81E08093B80580916D0281110FC097
:101B70000E94010D0E94200D8091E20084608093FC
:101B8000E20005C019BC1092B80510926D02809158
:101B9000E10080FF17C08091E20080FF13C08091B8
:101BA000E2008E7F8093E2008091E200806180936A
:101BB000E2008091D80080628093D80019BC85E053
:101BC0008093B8058091E10084FF30C08091E200ED
:101BD00084FF2CC080E189BD82E189BD09B400FE8B
:101BE000FDCF8091D8008F7D8093D8008091E10057
:101BF0008F7E8093E1008091E2008F7E8093E200EF
:101C00008091E20081608093E200809193028823BA
:101C100011F084E007C08091E30087FD02C081E0FD
:101C200001C083E08093B8058091B8058091E10000
:101C300083FF27C08091E20083FF23C08091E100F1
:101C4000877F8093E10082E08093B8051092930231
:101C50008091E1008E7F8093E1008091E2008E7F91
:101C60008093E2008091E20080618093E20042E094
:101C700060E080E00E94BF088091F000886080935F
:101C8000F000FF91EF91BF91AF919F918F917F9164
:101C90006F915F914F913F912F910F900FBE0F90D9
:101CA0001F9018952091E4003091E50095E6409151
:101CB000EC00842F817040FF23C08091E80080FDFC
:101CC0001DC08091B805882399F0853099F08091E6
:101CD000EB0085FD11C04091E4005091E500241710
:101CE000350729F3915011F09A01E1CF84E008956E
:101CF00082E0089583E0089581E0089580E00895EA
:101D00004091E80042FFDDCF089578941F920F9232
:101D10000FB60F9211248F939F93AF93BF9380912F
:101D2000640290916502A0916602B09167020196EB
:101D3000A11DB11D8093640290936502A093660279
:101D4000B0936702BF91AF919F918F910F900FBE9B
:101D50000F901F9018959C014FB7F89480916402E2
:101D600090916502A0916602B09167024FBF821BFD
:101D7000930B0895E42FF0E0EE0FFF1FEF52FE4F9C
:101D80009081921B97FD9195292F38E1239F212D5A
:101D90001124620F08950F931F9310E0F801EE0FC6
:101DA000FF1FEF52FE4F9081905797FD9195000FC6
:101DB000111FF801EE52FE4FE081F0E0B097DF0115
:101DC000AA0FBB1F8D010E0F1F1F2003D001219FE3
:101DD000B00D1124E8E3F0E0E91BF10997FDF3955C
:101DE0009F01220F331F89010E0F1F1F4003900117
:101DF000419F300D11242A0F3B1F37FF02C021588D
:101E00003F4F220F232F221F330B620F1F910F9181
:101E100008952091BE0530E1230F08F42FEF60E113
:101E2000822F90E00E942527BC0188EB9BE00E9456
:101E3000122E80E090E008950F931F93CF93DF93CD
:101E4000D62F072F182FC42F822F0E949526EC2FF4
:101E5000F0E0EE0FFF1FEF52FE4F90819058890F78
:101E600087FD8195880F682F2CE0629F612D1124DA
:101E70006D0F702F812FDF91CF911F910F910895DA
:101E80000E94B71E08950E94791E0895A4E0B0E054
:101E9000ECE4FFE00C94272E782E80911A01871134
:101EA0000DC02091BA05237030E04091190150E037
:101EB00081E02417350719F480E001C081E08170CA
:101EC00080931F018091BF0590911E01981739F0F2
:101ED00080931E0140E060E080E00E94400FEFE050
:101EE0007E125DC085E495E20E94B02B8A8342C0D9
:101EF000F71508F49AC123E0721609F459C02715A2
:101F000008F4F7C031E0731609F497C0371508F0EC
:101F1000B6C080911D01382F330F330F380F39832E
:101F200075E0F72EF30E80E38F1510F460E3F62EC4
:101F30001091BC059091BD059A830091BB05B80135
:101F4000892F0E942F27E62ED72EC82E6091BE051E
:101F5000600F712F8A810E942F276A83172F082F05
:101F600029812F1508F4ABC031E03A838FE28F1539
:101F700008F48EC080911D018F5F80931D019A81AE
:101F8000911113C582E08093200180911F0181117E
:101F90000CC571100AC583E08093200106C5E715C2
:101FA00008F46BC1F7E07F12A3CF84E795E29CCFE2
:101FB00080911D01982F990F990F980F99839B5F1E
:101FC0009B83913310F0E0E3EB83E090BC05D0906D
:101FD000BD052091BE0550E4F52E3F2D329F312DD9
:101FE0001124F32EE981FB81EF1708F042C08981AB
:101FF000082F10E0F801EF5CFD4F908180911E01E9
:102000008923B9F0F801EE0FFF1FEE52FE4F8081D9
:1020100082958F706091BB058F9D600D11247E2D80
:102020008D2D0E942F27462F282F672FC8010E9431
:10203000430F99819F5F9983D5CF80911D01282FF0
:10204000220F220F280F29832B5F2B83213310F0BF
:1020500030E33B836091BB057091BC058091BD0569
:102060000E942F27162F072FF82EE981FB81EF17EB
:1020700088F021E02A83F03308F47CCF09C08091F6
:102080001F01882329F040E060E080E00E94400FBB
:102090001A8270CF8981E82FF0E0DF01AF5CBD4F7D
:1020A0008C9190911E01982331F02F2D412F602F9C
:1020B000CF010E94430F99819F5F9983D6CFE98119
:1020C0008E2F90E0FC01EF5CFD4F308120911E01CE
:1020D000232359F030FF04C0202F4A81612F03C011
:1020E0002C2D4E2D6D2D0E94430FF981FF5FF9833A
:1020F00037CF85E078124AC080911D01382F330F09
:10210000330F380F39833B5F3B83313310F080E36B
:102110008B830091BB051091BC05F090BD056091CB
:10212000BE056695669566958091B2059091B3055A
:102130000E9425270E949526805887FD8195880F4B
:10214000282F3F2D239F212D1124822FB8010E947B
:102150002F27162F072FF82EE981FB81EF1708F0A4
:1021600088CF8981E82FF0E0DF01AF5CBD4F8C9113
:1021700090911E01982331F02F2D412F602FCF0118
:102180000E94430F99819F5F9983E6CF871508F4DA
:1021900049C080911D01382F330F330F380F398319
:1021A0003B5F3B83313310F080E38B83E090BC05D1
:1021B000D090BD052091BE0530E4F32E3F2D329F17
:1021C000312D1124F32EE981FB81EF1708F051CF57
:1021D0008981082F10E0F801EF5CFD4F908180911C
:1021E0001E018923D9F0F801EE0FFF1FEF52FE4FB9
:1021F0006081F69EB001112425E0759567952A95BA
:10220000E1F78091BB05680F7E2D8D2D0E942F2751
:10221000462F282F672FC8010E94430F99819F5F87
:102220009983D1CF80EA95E25FCE9BE0791208C016
:1022300083E296E202C08FE396E20E944F2C56CED4
:10224000971568F0E9E07E1205C08AE596E20E94E3
:10225000CB2C4CCEE71578F388E796E2F8CFFDE07B
:102260007F1203C089E695E23FCEF71518F082E7AA
:1022700095E23ACE80E695E237CE27E172124FC062
:1022800080911D01382F330F330F380F3983132FEF
:102290001B5F113308F010E380911F0181111EC0F4
:1022A0006091BE0520E1620F08F46FEF8091B205E6
:1022B0009091B3050E9425276AE070E00E94122EDB
:1022C000892B21F50E94B62660E30E947D2F609144
:1022D0001E01892F90E00E948C2118C09981892FBE
:1022E00090E09C838B83E12EF12C2B813C812E1579
:1022F0003F0564F460911E018B819C810E948C21BA
:10230000EB81FC813196FC83EB83EFCF31E03A83A4
:1023100002C091E09A83103308F42CCEB9CE271571
:1023200030F133E1731203C08EEF95E286CF37159B
:1023300070F081E1781203C08CEF96E288CF8715A8
:1023400018F086E395E279CF82E196E280CF95E1BD
:10235000791203C086ED94E204C0971528F088E056
:1023600095E20E94FA2BC2CD8BEC9EE0FACFEBE116
:102370007E1203C08AEB9EE0B7CDE71508F4A1C03A
:10238000F9E17F1250C080911D01E82FEE0FEE0F92
:10239000E80FE983EB5FEB83E13310F0F0E3FB83BD
:1023A0000091BC051091BD05F090BB056091BE0584
:1023B0006695669566958091B2059091B3050E94E9
:1023C00025270E949526805887FD8195880F682FC4
:1023D0002CE0629F612D11246F0D702F812F0E94C0
:1023E0002F27162F072FF82E89819B818917A8F494
:1023F0002981E22FF0E0DF01AF5CBD4F8C9190911D
:102400001E01982331F02F2D412F602FCF010E9404
:10241000430F39813F5F3983E7CFE1E0EA839033AF
:1024200008F4A8CD35CEF71508F448C080911F01F7
:1024300081111EC06091BE0520E1620F08F46FEFAC
:102440008091B2059091B3050E94252765E070E068
:102450000E94122E892B09F01BCE0E94A92E60E348
:1024600070E00E94892F60911E010E94682110CEA9
:1024700080911D01982F990F990F980F9983192F0B
:102480001B5F113308F010E3F981EF2FF0E0FC83BC
:10249000EB83E12EF12C8B819C818E159F050CF036
:1024A00038CF60911E018B819C810E9468212B8115
:1024B0003C812F5F3F4F3C832B83EDCF8CE19FE02E
:1024C00013CD2DE17212F0C04091300350913103D1
:1024D00060913203709133038091B2059091B305FE
:1024E000A091B405B091B50584179507A607B70765
:1024F00008F4CECD80911F0181110EC080911D0185
:10250000982F990F990F980F9983092F0B5F01331B
:1025100008F45CC000E35AC040E060E080E00E9444
:10252000400F00EA12E01C821B828FE7D82E0E9427
:10253000B62681FF05C0F80110821182128220C0E8
:102540000E94B626C82E0E94B6268695782F2D2D7D
:10255000720F08F47FEF8B819C81880F991FEB81AC
:10256000FC818E0F9F1F9C0120563D4F79016C2DE1
:102570008091BD050E942F27F701608371838283BC
:102580002B813C812F5F3F4F3C832B830D5F1F4F7F
:102590002033310561F6B2CF3981832F90E0FC0101
:1025A000EF5CFD4F308120911E01232361F0FC017F
:1025B000EE0FFF1FE80FF91FE056FD4F228140810B
:1025C00061810E94430F89818F5F89839981901770
:1025D00018F3E1E0EA83003308F01A82003308F4CC
:1025E000C9CC20E010E001501109822F90E0801743
:1025F0009107CCF4AC01440F551F480F591F4056AA
:102600005D4F0196FC01EE0FFF1F8E0F9F1FFC0117
:10261000E056FD4F80819181A281FA0180839183F0
:10262000A2832F5FE2CF0E94B6267801EE0CFF1C3A
:1026300081FF09C00E0D1F1DF801E056FD4F1082ED
:102640001182128218C00E94B62689830E94B62683
:102650008695782F2FE7720F08F47FEF0E0D1F1D60
:1026600000561D4F69818091BD050E942F27F801FA
:102670006083718382830E94090F0091B2051091DB
:10268000B3052091B4053091B505DC01CB01800F75
:10269000911FA21FB31F8093300390933103A09327
:1026A0003203B093330366CC721608F07AC080917F
:1026B0001D01982F990F990F890F8B5F8B83409184
:1026C000B2055091B3056091B4057091B505809144
:1026D0009C0290919D02A0919E02B0919F0284174E
:1026E0009507A607B70708F055C00E94B62689834C
:1026F0000E94B62690E3891BF0F7890F082F10E09F
:10270000F801EF5CFD4F80911E019081982309F440
:1027100041C0F981F1FF04C020E040E060E013C057
:102720000E94B62689830E94B6268695782F2FE7C9
:10273000720F08F47FEF69818091BD050E942F27F9
:10274000462F282F672FC8010E94430F2091BE05F6
:1027500030E1230F08F42FEF60E1822F90E00E9418
:102760002527BC0184EF91E00E94122E8091B205D2
:102770009091B305A091B405B091B505860F971F50
:10278000A11DB11D80939C0290939D02A0939E0277
:10279000B0939F0221E02A833B81303308F4EACBD7
:1027A00077CC3EE17312C7C080911F01882329F0C6
:1027B00040E060E080E00E94400F80911D01982F72
:1027C000990F990F890F8B5F89834091B2055091C2
:1027D000B3056091B4057091B50580915E03909149
:1027E0005F03A0916003B091610384179507A6076A
:1027F000B70708F099C06091BB057091BC05809146
:10280000BD050E942F27662E572E482E04E313E0A5
:102810002DE731E03C832B8341ED842E41E0942E63
:10282000AB80BC806501780132E0332EF7018081F6
:10283000F601882369F08081242D462D652D90E0D6
:102840000E94430FF5018581242D462D652D0CC076
:10285000808120E040E060E090E00E94430FF501BD
:10286000858120E040E060E090E00E94430FF701A6
:10287000818181937F013A94FFEFCF1ADF0A21E033
:10288000A21AB1083110D2CFF8018281EB81FC810C
:10289000882371F08281242D462D652D90E00E94C1
:1028A000430FEB81FC818381242D462D652D0DC0C6
:1028B000828120E040E060E090E00E94430FEB81E5
:1028C000FC81838120E040E060E090E00E94430FC3
:1028D0000E94B626837091E009F090E0F80192839F
:1028E0000D5F1F4F2B813C812A5F3F4F3C832B8321
:1028F0008216930609F094CF0E94090F0091B20549
:102900001091B3052091B4053091B505DC01CB01E0
:10291000800F911FA21FB31F80935E0390935F03EC
:10292000A0936003B093610331E03A8389818033DF
:1029300008F420CBADCB8FEF781231C08091B20577
:102940009091B305A091B405B091B50588279C700E
:10295000AA27BB272AE0B695A795979587952A952C
:10296000D1F782309105A105B10571F08330910551
:10297000A105B10569F040E00197A105B10511F08D
:1029800060E008C064E102C044E160E080E003C0B0
:1029900044E164E184E10E94400F82E0FDCA80913D
:1029A0001D018F5F80931D01EDCA2496E1E10C9417
:1029B000432EEAEBF5E085E380838091210190913D
:1029C0002201A091230181839283A3838CE38483DA
:1029D0008FEF858346E050E06CE170E0CF010E940C
:1029E000E62E1092B905089580E00895909168024E
:1029F00092FF0DC0282F2871283019F4877F84603A
:102A000006C0282F2471243011F48B7F886093FF37
:102A10000DC0282F2871283119F4877E846106C0E3
:102A2000282F2471243111F48B7E88612091690252
:102A300020FF0DC0382F3871383019F4877F81603E
:102A400006C0382F3171313011F48E7F886021FF3C
:102A50000DC0282F2871283119F4877E816106C0A6
:102A6000282F2171213111F48E7E886194FD877E9B
:102A700008957E30A0F4663090F494E5899FF001CB
:102A8000112486E0789FE00DF11D1124E60FF11D61
:102A9000EE0FFF1FEE50FD4F85919491089580E059
:102AA00090E00895CF93DF938238910569F1B0F4F7
:102AB0008133910509F477C048F48932910509F40E
:102AC00069C08A32910509F473C092C085339105BB
:102AD00009F45BC089339105B9F08AC0833E910542
:102AE00091F138F4803E9105D1F0823E910531F1AB
:102AF0007FC0863E9105D9F1873E9105E9F1843E7C
:102B0000910509F075C028C02091680220FD5BC0C6
:102B100021FD59C02091690223FD61C069C08091E7
:102B2000680280FD4AC08091690280FF4CC080919C
:102B3000680284FD4EC183EE90E04DC18091680231
:102B400082FF3EC0F4CF8091680282FD39C080913F
:102B5000690280FD38C0EBCF8091690281FF39C0E6
:102B60008091680284FD35C187EE90E034C1809188
:102B7000680283FF2BC0F4CF8091680283FD26C0DA
:102B80008091690281FD25C0EBCF8091680285FDAF
:102B900026C022C08091680285FD1EC08091690216
:102BA00083FF1DC00AC08091680286FD1BC01DC046
:102BB0008091680286FD19C015C089E390E00BC1C1
:102BC00082EE90E008C180EE90E005C186EE90E0D4
:102BD00002C184EE90E0FFC085E390E0FCC089E292
:102BE00090E0F9C08AE290E0F6C081E390E0F3C0A3
:102BF000811531E5930708F061C0811520E5920742
:102C0000B0F09C012370332741E050E002C0440F34
:102C1000551F2A95E2F7282F2695269580E2289FB2
:102C200090011124CA01822B932B9D68D4C0883E49
:102C3000910568F5803E910508F0CDC0883A910570
:102C4000B8F4853A910548F0855AE82FF0E0E85C41
:102C5000FE4F808190E09064BEC08130910509F400
:102C6000B5C008F4B6C08430910508F4B2C0B3C052
:102C70008F3B910508F0ADC0885AE82FF0E0EE0FC9
:102C8000FF1FE55CFE4F808191819464A4C0811593
:102C900030E2930758F4811521E0920708F09BC0B9
:102CA0008D3E910508F495C0906595C0811530E47E
:102CB000930708F48EC09F70906A8DC0811525E53A
:102CC000920708F042C0811534E5930728F0982F49
:102CD0008827846F906A7FC0811523E59207B0F042
:102CE0009C012370332741E050E002C0440F551F80
:102CF0002A95E2F7282F2695269580E2289F9001B5
:102D00001124CA01822B932B9A6865C0811532E584
:102D1000930728F4982F8827816F906A5CC09C01E4
:102D20002370332741E050E002C0440F551F2A951D
:102D3000E2F7282F2695269580E2289F90011124FE
:102D4000CA01822B932B9C6846C0EC01C11589E512
:102D5000D807B0F4C11528E5D20728F09C2F8827A2
:102D6000806F906A38C0C11536E5D30790F58C2F77
:102D70000E94F6148F7190E0982F882790622BC0E4
:102D8000C1158AE5D80790F48C2F8F700E94F61435
:102D900094E0D695C7959A95E1F7CF70D0E0DC2FF7
:102DA000CC27D0699E01282BC90115C0CE019056B1
:102DB0008115904270F48D2F8F710E94F614282F88
:102DC0002F71CE0199279062922B05C081E090E08F
:102DD00002C080E090E0DF91CF91089568EE7EEF31
:102DE00080E090E00E94142F60E082E090E00E947A
:102DF000F62E60E083E090E00E94F62E1092DC0355
:102E000060E084E090E00E94F62E64E082E290E0D0
:102E10000E94F62E60E085E090E00E94F62E60E0D1
:102E200086E090E00E94F62E6FEF87E090E00E942F
:102E3000F62E40E050E0BA0188E090E00E94082FB2
:102E400060E08DE090E00E94F62E40E050E0BA0194
:102E500088E190E00E94082F60E087E190E00E9406
:102E6000F62E40E050E0BA018CE190E00E94082F7D
:102E700060E070E080E290E00E94142F40E050E0BB
:102E8000BA0188E190E00E94082F1092E5031092A9
:102E9000E6031092E7031092E80384E08093E503D1
:102EA0004091E5035091E6036091E7037091E803D8
:102EB0008FE090E00E94082F40E050E0BA0183E1EB
:102EC00090E00E94082F08958091DB0381111092F9
:102ED000DB030895809590916E02892380936E02A2
:102EE000089590916E0280917B05982B90936203D8
:102EF0008091DB038823D9F0892B80936203809132
:102F00000A01882331F08091680287FF02C08EE1B8
:102F100001C086E0E4E6F3E090E0815028F02191E2
:102F20002223D9F39F5FF9CF91110E94641740E2E9
:102F300050E06BEB73E082E693E00E94C430892B93
:102F400021F180E2E2E6F3E0ABEBB3E001900D9219
:102F50008A95E1F7E0917F05F09180053097A9F01F
:102F600080910A01882359F08091680287FF07C089
:102F7000809162038093630386E080936203028002
:102F8000F381E02D82E693E0099508952091BA033C
:102F9000809582238093BA03982F977099F430E03C
:102FA000482F082E000C550B2417350759F0909127
:102FB000690292FF07C08595859585950E94E02955
:102FC0001092BA030895CF93C0916902C2FB99276A
:102FD00090F9981791F080FBC2F9C0936902609153
:102FE000680284E090E00E94F62E6C2F82E290E06E
:102FF0000E94F62E82E00E94C617CF91089580911C
:10300000B90390918803891719F08F5F8770FBCF00
:1030100008950F931F93CF93DF9380918703829539
:103020008F7009F05AC080918403882309F455C039
:103030008091B9031091880360918203709183039A
:10304000C0918503D091860391E06F3F09F090E035
:10305000292F06E0811709F440C0209721F07F3F17
:1030600021F030E003C031E001C0322F90E030FDAC
:1030700031C0089FF001099FF00D1124DF01A7570F
:10308000BC4F11963C911197371324C03C913613D5
:1030900021C012963C91129731111CC013964D918C
:1030A0005C9114974C1B5D0B483C510598F4809142
:1030B00087038F70806180938703E257FC4F808184
:1030C0008F708061808382E893E00E9474030E9485
:1030D000FF1703C001968770BDCFDF91CF911F917D
:1030E0000F910895A1E1B0E0E8E7F8E10C942D2EEE
:1030F0008C0185E0F801DE011D9601900D928A9504
:10310000E1F7F801E280909182036091830340919E
:103110008503509186034115510531F06F3F31F41D
:1031200081E09F3F19F403C081E001C080E0F82FE7
:10313000F1709F2E80FD1BC1F80130812181C38079
:10314000D48082E8A82E83E0B82EF0908403F601A4
:10315000E41BF50BFF2009F4C7C080918703E83C0E
:10316000F10508F092C0482F407F09F051C062136A
:1031700011C093130FC0FE2CE1100CC08F70806142
:1031800080938703C5010E94740380918703F8012F
:1031900085832AC1C114D10431F02F3F31F481E07D
:1031A0003F3F19F403C081E001C080E080FD03C00F
:1031B00081E08E2502C080E090E0F82FF170FF2EB4
:1031C00080FF1CC08091B9034091880356E08417AA
:1031D00009F4E8C090E0589FF001599FF00D1124C8
:1031E000E757FC4F6181261306C06081631303C05B
:1031F0006281E61203C001968770E9CFFE2CEE20B3
:1032000009F4F2C08091870381608093870349C0ED
:10321000621306C0931304C0E11002C0F80186C017
:10322000C8010E94FE29882351F1EE2041F120912E
:103230008703822F82958F7090E0029774F08091BF
:1032400082039091830398878F831986DB86CA86D1
:103250002C87CE0107960E94740386E0F801A2E84D
:10326000B3E001900D928A95E1F70E9409180AC017
:103270006217C9F0C8010E94FE2981111EC0C80151
:103280000E947403FF24F394AFC0482F407F81F75E
:1032900082E893E00E94740386E0F50111928A951A
:1032A000E9F7F12CA1C09313E5CFE110E3CFF801CA
:1032B0008583C8010E94740354C0EE2001F320915D
:1032C0008703822F82958F7090E0029734F280916D
:1032D0008203909183039A8389831B82DD82CC824F
:1032E0002E83CE010196B7CFE83CF105D0F5FE2C38
:1032F000EE2029F2621327C0931325C02091870383
:1033000020FD18C0822F82958F70482F50E0411504
:10331000510581F0F80125834F30510541F08F5F51
:10332000982F9295907F822F8F70892B8583C8016B
:103330000E94740386E0F801A2E8B3E001900D92C8
:103340008A95E1F751C0C8010E94FE29811185CFFD
:1033500080918703816080938703C8010E94740372
:1033600043C086E0F50111928A95E9F73DC0EE2051
:1033700009F485CFC8010E94FE29F82E882309F49C
:103380007ECF86E0F801A2E8B3E001900D928A9525
:10339000E1F780918203909183030E9440290E946B
:1033A000091822C03D872E878D859E850E94402961
:1033B000292F22952F70223028F49F7039F0811127
:1033C00005C00BC0243028F49F7049F4805E88301B
:1033D00020F0C8010E9474039F2CF92C05C0F8014D
:1033E0009581907F99F7F9CF8F2D6196EBE00C9442
:1033F000492EA0E0B0E0EFEFF9E10C94302E80917F
:10340000170190911801892BA1F08091DD038F5F46
:103410008093DD0381110DC00E94482390E09093BA
:10342000180180931701892B21F40E94BF230E9469
:10343000CA2109EE13E07801D0E0C0E087E0C82E91
:10344000CC0E8C2F0E942F248C2D0E942F248C2F89
:103450000E9492248F73F7019081891721F0808355
:10346000DD24D39401C0D12C8C2D0E9492248F7323
:10347000F7019781891719F0878381E001C080E007
:10348000D82ADD290E948324CF5FFFEFEF1AFF0ABD
:10349000C730A1F61092E203C091E103CC2309F4F6
:1034A0007BC00E94AC202091DF033091E003AC018F
:1034B000421B530B9A019093E0038093DF034F3F2D
:1034C000510509F018F4452B19F102C02FEF30E037
:1034D0001092E1031092DE03E091E303F091E40324
:1034E000AF01425F5F4F90E030E08081882341F080
:1034F000281718F010829C2F03C0821B80833C2F5A
:103500003196E417F50789F73093E1039093DE03D2
:10351000DD23A1F1E091E303F091E4038091E20364
:103520009091E103AAEFB3E0AF01425F5F4F6EE11C
:10353000E80128813C91321779F0308131110CC0BB
:1035400060832C9398819227282F30E0292B81E0EB
:10355000232B09F480E091E0319611960F5F1F4F05
:10356000E417F50729F78093E2039093E103809134
:10357000E203CDB7DEB7E8E00C944C2E81E09091E9
:10358000DE039923A1F38111C5CF0E94AC20909353
:10359000E0038093DF03BECFD111F7CF80E0EFCF00
:1035A000AAE4B0E0E6EDFAE10C94292E85B7806834
:1035B00085BF85B7806885BF84B7877F84BF0FB616
:1035C000F894A895809160008861809360001092C3
:1035D00060000FBE90E080E80FB6F8948093610021
:1035E000909361000FBE84EF94E190936302809307
:1035F00062020E94010D0E94200D8091E200846011
:103600008093E20078948091B8058823A1F010910E
:10361000E9001F709091EC00892F817090FD80E887
:10362000182B1092E9008091E80083FD0E94EB09BD
:103630001F701093E90082E084BD93E095BD9AEF7E
:1036400097BD80936E000E94482390E090931801EC
:10365000809317010E9483240E94C924E9EEF3E0BD
:10366000AAEFB3E011921D9223E0E73FF207D1F7F2
:103670008EE090E00E94A32F8093E3039093E403F5
:10368000FC010E961192E817F907E1F789EA809399
:10369000800089E08093810024982C983F988AB11B
:1036A0008F7C8AB96E98479A8BB180638BB9769A72
:1036B0008FE090E00E94DA2E6093E5037093E603BA
:1036C0008093E7039093E80367703FEF639FB00137
:1036D000112475956795759567957727709389007F
:1036E0006093880070938B0060938A0070938D00C4
:1036F00060938C000E94BF2380E090E00E94E02E47
:10370000883E9E4F11F00E94EE1682E090E00E94EB
:10371000D22E8093080484E090E00E94D22E182FCD
:1037200082E290E00E94D22E212F30E0382B30939D
:1037300069022093680283E090E00E94D22E0E94EA
:10374000F9298091F7030E941E230E94CA218091CB
:10375000BA05837011F4109220018091BA058C7F14
:1037600081608093BA058BE091E09093800580930F
:103770007F0508E110E0FF24F394EE24E3948091A8
:10378000B805853009F073C030E4B32E43E0A42EB1
:1037900050E1C52E62E1D62E8091B805853009F042
:1037A0005EC08091B805843009F436C00E94E821DB
:1037B00080911E0481110DC00E94460F10921A01C3
:1037C0008091BA058370809319010E94F51EA09222
:1037D0002001E0921E04109283050FB6F894A8957C
:1037E000009360000FBEB092600083B7817F846059
:1037F00083BF83B7816083BF7894889583B78E7FBA
:1038000083BF0FB6F894A89580916000886180937B
:103810006000109260000FBE80919202882309F42C
:10382000BBCF0E94482390E090931801809317012A
:103830000E9483240E94C924EAEFF3E0119284E0FD
:10384000E830F807D9F70E94F919EAEFF3E081911F
:10385000811112C294E0E830F907C9F79DCF1092A8
:103860006E020E94352A0E94352110921E040E9489
:10387000F91929E0A22E24E0B22EAAEFB3E0F50157
:1038800091918D91892724E0E731F20719F088237F
:10389000B9F332C0811130C00E94AC206C0180911C
:1038A000F8039091F903C816D90609F46BC08FEF9D
:1038B00022968FAF229723968FAF239724961FAE21
:1038C00024970E94AC208160782F26969FAF8EAF00
:1038D000269722964FAD229723965FAD2397249685
:1038E0006FAD249726968FAD26970E945322D092D3
:1038F000F903C092F80346C09AEF892E93E0992EFF
:10390000D12CF40151904F01F5016080652489F1BB
:10391000C12C77247394862D872121F12796CFAE71
:1039200027972896DFAE289791E0852D872109F407
:1039300090E029969FAF29970E94AC208160782F54
:103940002B969FAF8EAF2B9727964FAD2797289634
:103950005FAD289729966FAD29972B968FAD2B9742
:103960000E945322C394770CF6E0CF12D4CFF50116
:103970005082D394FFEFAF1ABF0A2EE0D212C1CF0C
:103980000E94A02080917C05882369F00E94AC20D1
:103990002091170430911804821B930B8F3F9F478F
:1039A00010F40E9442210E94E82185E0ECE8F5E055
:1039B000DE01119601900D928A95E1F710928D0526
:1039C00010928E0510928F0510929005DA80D1101A
:1039D00004C08B81882309F450C080918A0590919E
:1039E0008B050E94AB0E9C0190918605992309F4EA
:1039F0005BC12531310508F440C09F3F19F09F5F3E
:103A000090938605DD2061F00E9450281D1414F467
:103A100091E001C09FEF899F802D112480938D0537
:103A2000DB80DD2061F00E9450281D1414F491E029
:103A300001C09FEF899F802D112480938E053091C6
:103A40008D053323D1F020918E052223B1F045EB73
:103A50003403C0011124992319F090938D0502C0FD
:103A6000F0928D0535EB2303C0011124992319F041
:103A700090938E0502C0F0928E05DC80D11004C0B8
:103A80008D81882309F450C0809188059091890523
:103A90000E94AB0E9C0190918505992309F408C101
:103AA0002531310508F440C09F3F19F09F5F909386
:103AB0008505DD2061F00E9430281D1414F491E08A
:103AC00001C09FEF899F802D112480938F05DD8099
:103AD000DD2061F00E9430281D1414F491E001C033
:103AE0009FEF899F802D11248093900530918F0541
:103AF0003323D1F0209190052223B1F045EB34031C
:103B0000C0011124992319F090938F0502C0F092FF
:103B10008F0535EB2303C0011124992319F09093ED
:103B2000900502C0F092900545E050E0BE016F5F45
:103B30007F4F8CE895E00E94C430892BA9F48091D6
:103B40008D0581110FC080918E0581110BC0809170
:103B50008F05811107C081E090919005911103C0FC
:103B600080E001C081E080FD0E94CE2885E0FE015A
:103B70003196ACE8B5E001900D928A95E1F70E948C
:103B8000352190911904891721F0809319040E941E
:103B9000A0208091B805843009F0F1CD8093E90030
:103BA0008091E80082FFEBCD8091E80085FF24C082
:103BB0000E94520E81111EC080E2C82ED12C5E01DF
:103BC00041E2A40EB11C09C08091F100F50181937E
:103BD0005F01F1E0CF1AD10869F08091E80085FD1E
:103BE000F3CF8091E8008B778093E8000E94520E1B
:103BF000882399F391E001C090E08091E8008B77F1
:103C00008093E800992309F4BACDE9A18E2F90E0C2
:103C10008930910568F5FC01E459FF4F0C949D2F04
:103C200019828CE0E9E6F1E0DE01129601900D9236
:103C30008A95E1F78EEF8D8706C0F092B60584E095
:103C400089838EEF8A83CE0101960E94872B97CDC0
:103C50008091B605882309F492CD80E00E94B629B0
:103C60008AA10E94ED298BCD85E003C084E001C0CC
:103C70008FEF0E94502183CDC9BCD9BC09B400FE8E
:103C8000FDCF8091D8008F7D8093D8008091E00097
:103C900082608093E0008091E00081FDFCCF109273
:103CA0006E020E94352A78CD232B09F0A8CEE5CEEE
:103CB0002139314008F0FACE37CFEAEBF5E0248124
:103CC00030E1231B08F420E024838091B905816052
:103CD0008093B9050895EAEBF5E0248130E1230FE4
:103CE00008F42FEF24838091B90581608093B90592
:103CF0000895A4E0B0E0EFE7FEE10C94332E8033AA
:103D0000910588F5122F042FF62EBC01660F771F40
:103D1000660F771F66517B4F44E050E0CE0101965D
:103D20000E94B92E898183704A81282F30E050E9A2
:103D3000859FC00111248B5C9B4FFC01E40FF11D9A
:103D4000B497F0824B81FC01E40FF11DB49700831E
:103D50004C81840F911DFC01B4971083F901ED5C37
:103D6000FB4F81E080832496E5E00C944F2EFF9278
:103D70000F931F93CF93DF93182F062FF42EC0E0DD
:103D8000D0E02F2D402F612FCE010E94791E219669
:103D9000C033D105B1F7CDB7DEB7E5E00C944F2EB7
:103DA0000F931F93CF93DF93082F000FEB0114E2C3
:103DB00010931F04E0E2F4E0DE018D91819384E032
:103DC000E033F807D1F723E030E041E150E06FE164
:103DD00074E0802F0E94ED2D105F6096143B41F738
:103DE000DF91CF911F910F91089580913304882323
:103DF00029F065E374E084E70E94D01E109233043A
:103E000080913404882329F065EC74E087E70E94F0
:103E1000D01E109234040895EFE1F4E060834183F2
:103E200023E030E042E050E0BF01880F0E94ED2D1A
:103E30000895A0E0B0E0EFE1FFE10C94312E262FD1
:103E400030E0A90147585A4F7A01FA019081911147
:103E500007C0F7011082CDB7DEB7E7E00C944D2E16
:103E6000D82EF2E16F9FE001112400E010E0F8018C
:103E7000EC0FFD1FEB5AFA4F4081602F8D2D0E94F1
:103E80000C1F0F5F1F4F0231110589F7E2CFCF934F
:103E9000DF93C82F4BE06DEF0E940C1F40E06AE0FB
:103EA0008C2F0E940C1F8FE39CE90197F1F700C053
:103EB000000040E060E08C2F0E940C1F40E061E0B9
:103EC0008C2F0E940C1F40E066E08C2F0E940C1F7C
:103ED00040E06DEF8C2F0E940C1FD0E040E06D2F72
:103EE0008C2F0E940C1FDF5FD231C1F740E06D2F95
:103EF0008C2F0E940C1FDF5FD432C1F740E06D2F82
:103F00008C2F0E940C1FDF5FD43BC1F74BE06DEF9D
:103F10008C2F0E940C1F41E06AE08C2F0E940C1F26
:103F200040E06DEF8C2F0E940C1FDF91CF91089520
:103F3000A4E0B0E0EEE9FFE10C942A2E0E94212DCE
:103F400084E70E94471F87E70E94471F0AEE14E09C
:103F500072E1772EE8E0CE2ED12CEE24E394F12C02
:103F60006624639444E050E0B801CE0101960E94BB
:103F7000B92E2A8130E0C9018497AB80B12C44E28C
:103F8000A41AB108EC81F0E0B497AC0197FF02C02D
:103F9000495F5F4F63E0559547956A95E1F7298141
:103FA000237030E0729EB001739E700D11246B5A25
:103FB0007A4F4B01840E911CB6010E94892FD701C4
:103FC00002C0AA0FBB1F8A95E2F7CD01D4019C91D4
:103FD000892B8C93C501B7FC079653E0959587957F
:103FE0005A95E1F7729EA001739E500D11244B5A11
:103FF0005A4F4A01880E911CC501B6010E94892FB3
:10400000A70102C0440F551F8A95E2F7CA01D401E7
:104010009C91892B8C93CF01F7FD079643E09595F2
:1040200087954A95E1F7729EA001739E500D112469
:104030004B5A5A4F5A01A80EB11CCF01B6010E942B
:10404000892FF70102C0EE0FFF1F8A95E2F7CF011B
:10405000D5019C91892B8C93F901E758FA4F608226
:104060000C5F1F4FB5E00A3A1B0709F07BCF60E0F9
:1040700084E70E94191F61E087E70E94191F2496B8
:10408000EEE00C94462EEAEBF5E0438120E1421B82
:1040900008F440E08181628190E00E94342B089511
:1040A000EAEBF5E0438120E1420F08F44FEF818114
:1040B000628190E00E94342B0895EAEBF5E0628182
:1040C00020E1621B08F460E08181438190E00E945E
:1040D000342B0895EAEBF5E0628120E1620F08F4E9
:1040E0006FEF8181438190E00E94342B0895EAEBC9
:1040F000F5E0818190E04381628108970E94342B32
:104100000895EAEBF5E0818190E0438162810896B1
:104110000E94342B08958091BA058695869581502A
:1041200009F48EE10E94442B08958091BA0586958A
:1041300086958F5F8F3108F081E00E94442B0895AF
:104140002FB7F894609164027091650280916602C5
:10415000909167022FBF08952FB7F8948091640261
:1041600090916502A0916602B09167022FBF0895F9
:104170001F920F920FB60F9211248F939F93AF93BC
:10418000BF9380918305811113C080916402909147
:104190006502A0916602B09167024196A11DB11D12
:1041A0008093640290936502A0936602B0936702C5
:1041B000BF91AF919F918F910F900FBE0F901F9065
:1041C000189520910A012223C9F02091680227FF47
:1041D00015C0262F2695269526952E31C8F4FC016C
:1041E000E20FF11D677081E090E001C0880F6A95D1
:1041F000EAF780959281892382830895FC010696CF
:104200002281621301C012823196E817F907C1F7C3
:10421000089520918105309182052817390771F0A2
:104220009093820580938105E0917F05F091800550
:10423000309721F00084F185E02D099508952091B3
:104240007D0530917E052817390771F090937E0522
:1042500080937D05E0917F05F0918005309721F0F6
:104260000680F781E02D09950895E0917F05F09192
:104270008005309729F00190F081E02D099508958F
:1042800080E0089580917C05882349F080917B052A
:104290008D7D80937B050E94711710927C05089597
:1042A000A0E2B0E0E6E5F1E20C94362E9FEF9983B0
:1042B0008A83CE0101960E94872BA096E2E00C949F
:1042C000522E882311F0FA0101C0FB0109950895CF
:1042D0001F93CF93DF93FC01EF5CFD4F208162239E
:1042E000B9F0EC010E94A92E182F0E94A92E8F77F9
:1042F000782F20E8720F08F47FEF612F8091BD05C1
:104300000E942F27462F282F672FCE010E94430F90
:10431000DF91CF911F910895A0E0B0E0E2E9F1E2D2
:104320000C94312EEC01FC01EF5CFD4F9081692370
:1043300049F1D090BC050091BD051091BB05E12E5F
:10434000F12C0E94B626282FC7018C549F4F68E697
:1043500071E00E94892F8E199F0997FD039695950C
:104360008795959587952370612F289F600D11245F
:104370007D2D802F0E942F27462F282F672FCE01BB
:104380000E94430FCDB7DEB7E7E00C944D2E0E949C
:10439000442B08950E94981F80E090E00E94E02E38
:1043A000883E9E4F21F00E94EE160E94D91446E0EE
:1043B00050E06CE170E08AEB95E00E94C22E109212
:1043C000B9058091BA058C7F11F40E94D914089523
:1043D0000E94A02060931A0470931B0480931C0415
:1043E00090931D0420911E04211109C02091BA054B
:1043F000322F337021F0322F3695369501C030E0E0
:1044000020912001213091F028F0223099F02330C2
:10441000F1F0089510921D016093B2057093B305F9
:104420008093B4059093B50581E00EC0832F0E9460
:10443000460F089530931A018091BA0583708093D6
:1044400019010E94F51E83E0809320010895809158
:10445000B905882351F046E050E06CE170E08AEB4A
:1044600095E00E94E62E1092B9054091B205509158
:10447000B3056091B4057091B5052FB7F89480919C
:10448000640290916502A0916602B09167022FBF0D
:10449000841B950BA60BB70B4A97A105B10510F02D
:1044A000109220010895A7E1B0E0E9E5F2E20C9452
:1044B000352E4B8B5C8B6D8B7E8B8F8B61111092AD
:1044C0007B0586E09E01235F3F4FD901E82F1D92B7
:1044D000EA95E9F795E0FE017396D90101900D92F6
:1044E0009A95E1F79C894E895F897B897D879E87B4
:1044F0006F87598B488BF901DE01179601900D9259
:104500008A95E1F7CE0107960E94721881113EC08C
:1045100086E0FE013796DE01119601900D928A9594
:10452000E1F7FF81E8856A857B856115710531F0CA
:10453000EF3F31F481E0FF3F19F403C081E001C097
:1045400080E080FD23C02091880330E0C9010196FE
:10455000877099274091B90350E08417950779F146
:10456000F983EA837D836C8396E0929FD001939FC9
:10457000B00D1124A757BC4FFE01319601900D924A
:104580009A95E1F7809388030E94FF1716E08091C7
:10459000B90390918803891709F1189FC00111246C
:1045A00087579C4F0E9472188823C1F08091B903ED
:1045B00090E00196877099278093B903E8CF109215
:1045C0006E020E94352A109288031092B903E2E825
:1045D000F3E086E0DF011D928A95E9F76796E3E054
:1045E0000C94512E982F92959F7019F0892F24E0EA
:1045F00001C020E0982F9695969511F02E5F892F97
:10460000982F969509F02F5F822F089510926E02D1
:104610000E94352A2FEF84E39CE021508040904097
:10462000E1F700C000009AE088E10FB6F894A89581
:10463000809360000FBE90936000FFCFCF93C82F90
:104640000E94F22256985E9825982D9826982E98CA
:1046500027982F9890E0FC013197E730F105A8F4F6
:10466000EB58FF4F0C949D2F259A2D9A0EC0259A3A
:104670002D9A269A2E9A09C0259A2D9A04C0259A19
:104680002D9A269A2E9A279A2F9A8C2FCF91089599
:1046900080E290E090931801809317018091840547
:1046A00081110EC00E94212D81E0809384052FEF9F
:1046B00083ED90E3215080409040E1F700C000007E
:1046C00060E570E080E40E94272D909318018093AC
:1046D0001701892B09F04EC060E570E080E00E9470
:1046E0009A2D9093180180931701892B09F042C0ED
:1046F00060E570E080E00E949A2D9093180180930D
:104700001701892BB9F560E570E08FE30E949A2DBF
:104710009093180180931701892B61F50E940E2E4A
:1047200060E570E080E40E94272D9093180180934B
:104730001701892BF9F460E570E08CE00E949A2D56
:104740009093180180931701892BA1F460E570E024
:1047500080E00E949A2D9093180180931701892B75
:1047600049F460E570E08FE30E949A2D9093180160
:10477000809317010E940E2E809117010895CF9308
:10478000DF9356985E9825982D9826982E9827980E
:104790002F98C8E8D0E08FEF90E099838883AAE84B
:1047A000B0E011969C938E93ECE8F0E091838083C7
:1047B000259A2D9A2FEF80E792E02150804090407B
:1047C000E1F700C00000269A2E9A2FEF80E792E0D2
:1047D000215080409040E1F700C00000279A2F9AB6
:1047E0002FEF80E792E0215080409040E1F700C039
:1047F000000025982D982FEF80E792E0215080400F
:104800009040E1F700C0000026982E982FEF80E737
:1048100092E0215080409040E1F700C000002798CE
:104820002F988091E50387702FEF829FC00111249C
:10483000959587959595879599279983888311965E
:104840009C938E939183808356985E9825982D989B
:1048500026982E9827982F98DF91CF910895CF937F
:10486000E82F873080F58091170190911801892BEE
:1048700009F047C0CE2F60E570E080E40E94272D4C
:104880009093180180931701892BD1F460E570E0B3
:1048900082E10E949A2D9093180180931701892B31
:1048A00079F481E090E001C0880FCA95EAF760E5ED
:1048B00070E080950E949A2D9093180180931701C3
:1048C0000E940E2E1EC090E0FC013797E730F105E4
:1048D000C0F4E458FF4F0C949D2F209A289811C0E3
:1048E000219A29980EC0229A2A980BC0239A2B98B5
:1048F00008C0529A5A9805C0539A5B9802C03E9AD3
:104900004698CF9108952098289821982998229820
:104910002A9823982B9852985A9853985B983E98C7
:1049200046980895CF93873040F580911701909174
:104930001801892B59F560E570E081E40E94272D6C
:104940009093180180931701892B11F0C0E011C0DA
:1049500080E590E00E94C92D97FF05C09093180153
:1049600080931701F3CFC82FC095109218011092B1
:1049700017010E940E2E8C2F0AC09FB18FB1807F2D
:10498000869586959370892B809501C080E0CF91A4
:1049900008958098889A8198899A84988C9A8598A5
:1049A0008D9A86988E9A87988F9A08950F931F9361
:1049B000522F10E0F801EE0FFF1FEE52FE4FE08184
:1049C000F0E0B097EE0FFF1F9F015203D001539FFD
:1049D000B00D1124000F111FF801EF52FE4F00819E
:1049E00010E000571109000F111F40039001419F73
:1049F000300D11242A0F3B1F37FF02C021583F4FB3
:104A0000220F232F221F330B620F1F910F91089546
:104A10000F931F93522F10E0F801EE0FFF1FEE527D
:104A2000FE4FE081F0E0B0979F015203D001539F09
:104A3000B00D1124000F111FF801EF52FE4F00813D
:104A400010E00057110940039001419F300D1124DF
:104A50002A0F3B1F37FF02C021583F4F220F232F41
:104A6000221F330B620F1F910F910895EF920F9346
:104A70001F9393E0099F80011124159507956E2DD2
:104A8000600F1F910F91EF900895A22F50E0FA014F
:104A9000EE0FFF1FEE52FE4F9081905297FD9195C1
:104AA000440F551FFA01EF52FE4F3081232F30E0A3
:104AB0002A1B3109290F311D97FD3A95620F089580
:104AC000E42FF0E0EE0FFF1FEE52FE4F6081621BFD
:104AD0000895E42FF0E0EE0FFF1FEF52FE4F6081CC
:104AE000621B0895622F0895E42FF0E0EE0FFF1F80
:104AF000EF52FE4F408134EE439F412D1124E82FA9
:104B0000F0E050E0445E5F4FDA01A21BB1099D0165
:104B1000B7FF03C031952195310993E0220F331F70
:104B20009A95E1F7AF01421B530B9A0157FF02C060
:104B300020E030E0582F259F212D1124822F089549
:104B4000E42FF0E0EE0FFF1FEF52FE4F408134EEF6
:104B5000439F412D1124E72FF0E050E0445E5F4F6A
:104B6000DA01A21BB1099D01B7FF03C03195219560
:104B7000310993E0220F331F9A95E1F7AF01421BF1
:104B8000530B9A0157FF02C020E030E0279F212DF0
:104B90001124722F0895FC019B01009721F477FFE7
:104BA0002BC080E80895AC0197FF04C04427552727
:104BB000481B590BB901640F751F37FD0CC0241B2E
:104BC000350BC901A5E0880F991FAA95E1F70E944E
:104BD000892F80E20CC0CB0165E0880F991F6A9590
:104BE000E1F7BA01621B730B0E94892F80E6861BD6
:104BF000F7FF03C08195089580E00895EF920F9329
:104C0000CF93DF93D72FC82FC9010E19BA010E9485
:104C1000CB25602F681B7D2F8C2FDF91CF910F91BB
:104C2000EF9008950F93CF93DF93D72FC82FC9012B
:104C3000BA010E94CB25682F600F7D2F8C2FDF914A
:104C4000CF910F910895EF920F931F93CF93DF931E
:104C5000D62FC72F182FC9010E19010FBA010E94B4
:104C6000CB25081B202F219F212D1124822F6D2F52
:104C70007C2FDF91CF911F910F91EF900895EF92CC
:104C80000F931F93CF93DF93D62F172FC82FC901F0
:104C90000E19070FBA010E94CB25702F781B719F48
:104CA000712D11246D2F8C2FDF91CF911F910F91BA
:104CB000EF900895FF920F931F93CF93DF93F62EFB
:104CC000D72F182FC901C12FC01BBA010E94CB25B5
:104CD000982F990F890FC81B2C2F219F212D11244C
:104CE000822F6F2D7D2FCDB7DEB7E5E00C944F2ED0
:104CF000FF920F931F93CF93DF93F62E172FD82F8A
:104D0000C901C72FC01BBA010E94CB25982F990F4C
:104D1000890F7C2F781B719F712D11246F2D8D2F82
:104D2000CDB7DEB7E5E00C944F2E482F982F46FD07
:104D30009095E92FEF739F7046FD9F5FE295EF70AE
:104D4000EE0FF0E0EB58FE4F2181299F802D212DA1
:104D5000112482958F702295207F822B3081982F8D
:104D6000930F892F47FD81958058089540911B012D
:104D700050911C0125E038E0429FC001439F900DF7
:104D8000529F900D1124875E994C90931C01809343
:104D90001B01890F0895BC018230910508F4089524
:104DA000613E8EE1780748F49B0195E036952795A2
:104DB0009A95E1F748E0420F01C04FEF91E0242FB0
:104DC00030E0290F311D35952795229FF001239F53
:104DD000F00DF00D11246E177F0718F44FEF420FFE
:104DE00004C02F3F39F091E0920F491740F78FEF41
:104DF000890F08958FEF08950F93CF93DF93D72FE7
:104E0000C82F47FD4195E8E3F0E0CF01841B9109ED
:104E100047FD9395889FB001899F700D700D1124F7
:104E2000229FC001239F900D900D1124860F971F84
:104E30000E94CB26682F660F860F682F600F7D2F8C
:104E40008C2FDF91CF910F91089520E030E0869F65
:104E5000212D969F200D311D1124C9010895A0E038
:104E6000B0E0E5E3F7E20C94302EF62E472FE82F62
:104E7000F0E0711106C0E655FA4F8491782F682F43
:104E800073C0272F30E0E655FA4FE491FE2F0E2F26
:104E900010E056E0659FC0011124CFEFD0E0BE01C5
:104EA0000E94122E5BEA5603C001579F900D1124F9
:104EB0008F0D911D8F0D911D982F990F980F7E01C9
:104EC000E21AF30AE09ED001E19EB00DF09EB00D13
:104ED00011248B2F499FA0011124452F55277E01B6
:104EE000E41AF50AE09EA001E19E500DF09E500DDF
:104EF00011246E01C91AD108C29E7001C39EF00C24
:104F0000D29EF00C11242F2D3327C21BD30BC09F30
:104F10009001C19F300DD09F300D1124932F62302E
:104F2000710591F048F461157105E1F0613071058A
:104F3000B9F49E2FE52F16C06430710569F040F07A
:104F40006630710579F00CC09E2FEB2F832F0AC0BD
:104F5000EB2F8F2F952F06C09B2F8E2FE32F02C094
:104F60009B2F852F7E2F692FCDB7DEB7E8E00C94FD
:104F70004C2E8D3E39F490918E0597FF35C01092DE
:104F80008E0559C08E3E29F490918E051916BCF3FA
:104F90002BC090918D058F3E29F497FF25C010926C
:104FA0008D0549C0803F19F41916CCF31DC09091AE
:104FB0008F05893F29F41916BCF410928F053BC068
:104FC0008A3F19F497FF10C0F8CF8B3F39F49091C6
:104FD000900597FF09C0109290052DC08C3F21F4D9
:104FE000909190051916BCF39FE0980F983080F4CB
:104FF00021E030E0A90102C0440F551F9A95E2F765
:10500000CA01809590918C05892380938C0513C0EB
:105010008D3F21F4809187058E7F0BC08E3F21F458
:10502000809187058D7F05C08F3F29F4809187058A
:105030008B7F8093870580918D05811106C08091BB
:105040008E05811102C01092860580918F05811115
:1050500006C080919005811102C0109285050895C7
:105060008091870580FD18C081FD14C082FD16C0A7
:1050700080918505882381F08C3380F427E0829F1E
:10508000C00111246CE370E00E94892F862F672BEA
:1050900019F005C083E0089581E0089587E0089540
:1050A0008091870580FD17C081FD17C082FD19C062
:1050B00080918605882399F08C3398F428E3829FA9
:1050C000C00111246CE370E00E94892F862F672BAA
:1050D00049F481E008958EE008958CE1089588E018
:1050E000089588E308958D3E21F40E94502881950B
:1050F00004C08E3E29F40E94502880938E050895A6
:105100008F3E21F40E945028819504C0803F29F4ED
:105110000E94502880938D050895893F19F40E94BC
:10512000302805C08A3F31F40E9430288195809351
:105130008F0508958B3F21F40E943028819504C08B
:105140008C3F29F40E9430288093900508959FE0B9
:10515000980F983078F421E030E0A90102C0440FA4
:10516000551F9A95E2F7CA0190918C05892B80937F
:105170008C0508958D3F21F48091870581600BC0D7
:105180008E3F21F480918705826005C08F3F29F40E
:105190008091870584608093870508950E94AC20E4
:1051A00020918D05211104C020918E05222321F02C
:1051B00090938B0580938A0520918F05211104C05F
:1051C00020919005222321F09093890580938805F2
:1051D000E0917F05F0918005309731F00480F581F2
:1051E000E02D8CE895E00995089580E090E00E941C
:1051F0001F2180E090E00E94092110927B050E940F
:105200007117ECE8F5E085E0DF011D928A95E9F77A
:105210001092860510928505109287050E94CE286F
:105220000895CF92DF92FF920F931F93CF93DF9356
:105230006C010091F7038091DC03082BC7E0D0E0FC
:1052400010E0C8010C2E02C0959587950A94E2F7EC
:1052500080FD04C02197A8F7F12C09C0FC2EB601EF
:105260008C2F0E9439150E945215019799F38F2DAA
:10527000DF91CF911F910F91FF90DF90CF90089514
:10528000CF93DF93EC010E941129BE010E943915D2
:105290000E945215DF91CF910895292F9E3078F505
:1052A000863068F590E036E0239F800D911D112433
:1052B000682F677023E0969587952A95E1F7FC01A2
:1052C000EE0FFF1FE80FF91FEF56FA4F40E050E0D6
:1052D00080E0219130E0062E02C0369527950A9491
:1052E000E2F721703327042E01C0220F0A94EAF757
:1052F000822B4F5F5F4F4330510559F7089580E08F
:105300000895292F9E3088F5863078F590E036E0B4
:10531000239F800D911D1124282F277051E001C07B
:10532000550F2A95EAF723E0969587952A95E1F798
:10533000FC01EE0FFF1FE80FF91FEF56FA4F20E0B8
:1053400030E070E04081CB01022E02C09695879537
:105350000A94E2F7817081958427852384278193BD
:105360002F5F3F4F2330310569F70895A0E2B0E089
:10537000ECEBF9E20C94352E0E941E23182F80913D
:10538000B6058823A9F02FEF80E792E021508040F6
:105390009040E1F700C0000085E08983812F0E94E2
:1053A000F2228A838EEF8B83CE0101960E94872B97
:1053B0001093F7030E94F528A096E3E00C94512E79
:1053C00021E030E001C0220F8A95EAF72095809114
:1053D000F70382230E94B629089521E030E001C03E
:1053E000220F8A95EAF78091F703822B0E94B62953
:1053F00008958093DC030E94F5280895CF93FC0163
:105400008081918123813481232B31F09F3F31F4BE
:1054100091E08F3F19F403C091E001C090E0C92FE3
:10542000C17090FD1CC0808191810E94402992959D
:105430009F70963079F010F4925001C09A509230DB
:1054400088F4803F71F018F4883E60F40AC0843F0D
:1054500049F407C0883E28F0813F21F402C0C0E033
:1054600001C0C1E08C2FCF91089580910A0188235B
:1054700031F08091680287FF02C08EE101C086E0B2
:10548000E4E6F3E0DF011D928A95E9F70E94F52832
:105490000895882321F00E946A170E9471170895C9
:1054A000882339F090916E02892B80936E020E94BE
:1054B00071170895882391F19CEF980F913A30F479
:1054C000682F82E693E00E94E1200DC090E2980FE1
:1054D000983060F4877091E001C0990F8A95EAF7DF
:1054E000892F0E946A170E94711708959BE5980FF3
:1054F000933028F480E090E00E941F21089598E501
:10550000980F973128F480E090E00E9409210895D7
:105510008D3E20F00E94B9270E94CE280895CF9397
:10552000882309F49FC0C82F8CEF8C0F813A08F0B4
:105530005BC080910A018823E1F08091680287FFB7
:1055400018C0EC2FE695E695E695F0E0EE59FC4F95
:105550008281282F30E04C2F477081E090E002C01C
:10556000880F991F4A95E2F782239323892B59F4D8
:1055700011C0E4E6F3E08191C81729F083E0EA3630
:10558000F807C9F707C06C2F82E693E00E94E1207C
:105590000E94711780910A018823B1F080916802FE
:1055A00087FF12C0EC2FE695E695E695F0E0EE5900
:1055B000FC4FC77081E090E001C0880FCA95EAF700
:1055C0009281892B828320C0A4E6B3E0EFEF80E0D4
:1055D0009D91C917C9F0EF3F19F4911101C0E82F4F
:1055E0008F5F8630A9F735C080E28C0F883078F461
:1055F000C77081E090E001C0880FCA95EAF79091EA
:105600006E02892B80936E020E9471172BC0EBE50E
:10561000EC0FE33040F4F0E0E85CFE4F808190E076
:105620000E941F211FC0E8E5EC0FE73150F4F0E0C5
:10563000EE0FFF1FE55CFE4F808191810E940921E2
:1056400011C0CD3E78F08C2F0E9473280E94CE2886
:1056500009C0EF3FC9F20E2E000CFF0BEE59FC4FB4
:10566000C283D2CFCF9108959091BA05937059F02B
:105670008093BB056093BC054093BD058091B9053F
:1056800081608093B90508959091BA059370A1F057
:10569000811102C0946007C08F3110F0986703C079
:1056A000880F880F982B9093BA0510922001809153
:1056B000B90581608093B9050895EF92FF920F9329
:1056C0001F93CF93DF937C018B010E94520E8111B7
:1056D00019C0E70101151105A1F08091E80085FDD1
:1056E0000AC08091E8008E778093E8000E94520EF5
:1056F000882381F307C089918093F100015011093B
:10570000E9CF80E0CDB7DEB7E6E00C944E2ECF9324
:105710002091B805243011F5C091E900CF70309187
:10572000EC00232F217030FD20E8C22B23E02093D2
:10573000E9002091E80020FF0EC040E050E060E268
:1057400070E00E945D2B81111092B6058091E800F7
:105750008E778093E800CF70C093E900CF910895D1
:10576000A0E0B0E0E6EBFBE20C94312E8C018091DE
:105770001D01C82FCC0FCC0FC80FD5E0DC0FD133E3
:1057800008F0D0E36091BE056695669521E0620F52
:1057900008F46FEF8091B2059091B3050E94252720
:1057A000D82ECD17F0F4EC2EF12CF701EF5CFD4F65
:1057B000908180911E01892391F06091BB057091C9
:1057C000BC058091BD052D2D4C2FF80109950E9437
:1057D0002F27462F282F672FC7010E94430FCF5F27
:1057E000E0CF81E0D03308F080E0CDB7DEB7E7E06E
:1057F0000C944D2EA0E0B0E0E0E0FCE20C942D2EE5
:105800006C0180911D01C82FCC0FCC0FC80F15E083
:105810001C0F113308F010E36091BE056695669584
:105820008091B2059091B3050E942527D82F80E47E
:105830008D0F0E94952690E8F92EF80E8D2F0E946C
:10584000952620E8922E980EC11700F5AC2EB12CAB
:10585000F501EF5CFD4F908180911E018923A1F03D
:105860006091BB057091BC058091BD05ED2E0C2F9C
:10587000292D4F2DF60109950E942F27462F282FFD
:10588000672FC5010E94430FCF5FDECF81E0103349
:1058900008F080E0CDB7DEB7EBE00C94492E6F92B4
:1058A0007F928F929F92AF92BF92CF92DF92EF92B0
:1058B0000F931F93CF93DF933C0180911D01C82F5D
:1058C000CC0FCC0FC80FD5E0DC0FD13308F0D0E3FC
:1058D0006091BE0566958091B2059091B3050E94D6
:1058E0002527182FCD1708F044C08C2E912CF401D9
:1058F000EF5CFD4F908180911E018923C1F1F4017D
:10590000EE0FFF1FEF52FE4FC080D12C80E7C81A68
:10591000D108F401EE0FFF1FEE52FE4FA080B12C14
:10592000E0E2AE1AB108CC9C9001CD9C300D300D58
:105930001124AA9CC001AB9C900D900D1124820FE4
:10594000931F0E94CB26082F6091BB057091BC0568
:105950008091BD05E12E9501A601F30109950E94F4
:105960002F27462F282F672FC4010E94430FCF5F98
:10597000B9CF81E0D03308F080E0DF91CF911F9163
:105980000F91EF90DF90CF90BF90AF909F908F904E
:105990007F906F900895A0E0B0E0E1EDFCE20C9400
:1059A000302E6C0180911D01C82FCC0FCC0FC80F79
:1059B000D5E0DC0FD13308F0D0E36091BE056695E9
:1059C0008091B2059091B3050E942527182FCD171D
:1059D00078F5EC2EF12CF701EF5CFD4F9081809172
:1059E0001E01892319F1F701EE0FFF1FEE52FE4F42
:1059F000208130E020523109F701EE0FFF1FEF52F6
:105A0000FE4F408150E0405751096091BB057091B5
:105A1000BC058091BD05012FF60109950E942F2735
:105A2000462F282F672FC7010E94430FCF5FCFCF8C
:105A300081E0D03308F080E0CDB7DEB7E8E00C9429
:105A40004C2E1092B9008CE08093B8000895A0E02D
:105A5000B0E0EDE2FDE20C942D2EB82EEB010E9499
:105A6000AC206C01C431D10558F0CF3F8FEFD8077F
:105A700059F0CE0164E170E00E94122E7B0107C054
:105A8000EE24E394F12C03C025E0E22EF12C84E80F
:105A9000A82E94EA992E1092BC009092BC000E940D
:105AA000AC208C018091BC0087FD07C0C8010E941A
:105AB000AB0EE816F906B0F729C08091B900887FCF
:105AC000883041F08091B900887F803119F00FEF64
:105AD0001FEF1EC0B092BB00A092BC000E94AC2081
